{
  "contractName": "Bid",
  "abi": [
    {
      "constant": true,
      "inputs": [],
      "name": "face",
      "outputs": [
        {
          "internalType": "uint256",
          "name": "",
          "type": "uint256"
        }
      ],
      "payable": false,
      "stateMutability": "view",
      "type": "function"
    },
    {
      "constant": true,
      "inputs": [],
      "name": "pid",
      "outputs": [
        {
          "internalType": "address",
          "name": "",
          "type": "address"
        }
      ],
      "payable": false,
      "stateMutability": "view",
      "type": "function"
    },
    {
      "constant": true,
      "inputs": [],
      "name": "quantity",
      "outputs": [
        {
          "internalType": "uint256",
          "name": "",
          "type": "uint256"
        }
      ],
      "payable": false,
      "stateMutability": "view",
      "type": "function"
    },
    {
      "constant": false,
      "inputs": [
        {
          "internalType": "uint256",
          "name": "f",
          "type": "uint256"
        },
        {
          "internalType": "uint256",
          "name": "q",
          "type": "uint256"
        }
      ],
      "name": "setBid",
      "outputs": [
        {
          "internalType": "bool",
          "name": "success",
          "type": "bool"
        }
      ],
      "payable": false,
      "stateMutability": "nonpayable",
      "type": "function"
    }
  ],
  "bytecode": "0x608060405234801561001057600080fd5b506101e9806100206000396000f3fe608060405234801561001057600080fd5b506004361061004c5760003560e01c806317fc45e2146100515780631c582cf71461006f578063711283d11461008d578063f1068454146100dd575b600080fd5b610059610127565b6040518082815260200191505060405180910390f35b61007761012d565b6040518082815260200191505060405180910390f35b6100c3600480360360408110156100a357600080fd5b810190808035906020019092919080359060200190929190505050610133565b604051808215151515815260200191505060405180910390f35b6100e561018e565b604051808273ffffffffffffffffffffffffffffffffffffffff1673ffffffffffffffffffffffffffffffffffffffff16815260200191505060405180910390f35b60015481565b60005481565b6000826000819055508160018190555033600260006101000a81548173ffffffffffffffffffffffffffffffffffffffff021916908373ffffffffffffffffffffffffffffffffffffffff1602179055506001905092915050565b600260009054906101000a900473ffffffffffffffffffffffffffffffffffffffff168156fea265627a7a7231582044242d57c94c8f7ea349d940ef85602c0d65ad386154a4261f989820d47645fc64736f6c63430005100032",
  "source": "// SPDX-License-Identifier: MIT\npragma solidity >=0.4.22 <0.8.0;\n\ncontract Bid{\n  uint public face;\n  uint public quantity;\n  address public pid;\n\n  function setBid(uint f, uint q) public returns(bool success) {\n    face = f;\n    quantity = q;\n    pid = msg.sender;\n    return true;\n  }\n}\n\ncontract Player{\n  address payable public id;\n  uint public noDices;\n  constructor (address payable _id, uint _noDices) public {\n    id = _id;\n    noDices = _noDices;\n  }\n}\n\ncontract LiarsDice {\n  string public myString = \"Hello World\";\n  uint public noPlayers;\n  uint public turn;\n  uint[] private faceNumber = new uint[](7);\n  Bid public lastBid = new Bid();\n\n  // Player[] public players = new Player[](10);\n  address[] public players = new address[](10);\n\n  // The bids are stored in a hashed format so that it is not visible even to the seller\n  mapping(address => bytes32) private hashedDice;\n\n  // A constructor taking in the bidding time and revealing time as parameters\n  constructor () public {\n    lastBid.setBid(1,0);\n    noPlayers = 0;\n    faceNumber = [0,0,0,0,0,0,0];\n  }\n\n  // A function to be called by the highBidder with the secondBid value to pay to the owner\n  function registerParticipant() public payable {\n    // players[noPlayers] = new Player(msg.sender,5);\n    players[noPlayers] = msg.sender;\n    noPlayers++;\n  }\n\n  function setDice(bytes32 h) public {\n    hashedDice[msg.sender] = h;\n  }\n\n  function bid(uint f, uint q) public {\n    require(f>=1 && f<=6, \"Dice Face Not Valid\");\n    lastBid.setBid(f,q);\n  }\n\n  function revealDice(uint f1, uint f2, uint f3, uint f4, uint f5) public {\n    require(keccak256(abi.encodePacked(f1,f2,f3,f4,f5)) == hashedDice[msg.sender], \"Revealed Bid or Nonce don't match\");\n    faceNumber[f1]++;\n    faceNumber[f2]++;\n    faceNumber[f3]++;\n    faceNumber[f4]++;\n    faceNumber[f5]++;\n  }\n\n  function challenge() public view returns (bool){\n    uint quantity = faceNumber[lastBid.face()];\n    if(quantity >= lastBid.quantity())\n      return false;\n    else\n      return true;\n  }\n\n  function getAllPlayers() public view returns (address[] memory) {\n    return players;\n  }\n}",
  "sourcePath": "/home/mayank/Study/BC/liar-dice-dapp/contracts/LiarsDice.sol",
  "compiler": {
    "name": "solc",
    "version": "0.5.16+commit.9c3226ce.Emscripten.clang"
  },
  "schemaVersion": "3.2.4",
  "updatedAt": "2020-10-08T20:29:00.404Z",
  "devdoc": {
    "methods": {}
  },
  "userdoc": {
    "methods": {}
  }
}