{
  "contractName": "LiarsDice",
  "abi": [
    {
      "inputs": [],
      "payable": false,
      "stateMutability": "nonpayable",
      "type": "constructor"
    },
    {
      "constant": true,
      "inputs": [],
      "name": "bidAddress",
      "outputs": [
        {
          "internalType": "address payable",
          "name": "",
          "type": "address"
        }
      ],
      "payable": false,
      "stateMutability": "view",
      "type": "function"
    },
    {
      "constant": true,
      "inputs": [],
      "name": "bidFace",
      "outputs": [
        {
          "internalType": "uint256",
          "name": "",
          "type": "uint256"
        }
      ],
      "payable": false,
      "stateMutability": "view",
      "type": "function"
    },
    {
      "constant": true,
      "inputs": [],
      "name": "bidQuantity",
      "outputs": [
        {
          "internalType": "uint256",
          "name": "",
          "type": "uint256"
        }
      ],
      "payable": false,
      "stateMutability": "view",
      "type": "function"
    },
    {
      "constant": true,
      "inputs": [],
      "name": "curBidder",
      "outputs": [
        {
          "internalType": "address payable",
          "name": "",
          "type": "address"
        }
      ],
      "payable": false,
      "stateMutability": "view",
      "type": "function"
    },
    {
      "constant": true,
      "inputs": [],
      "name": "numPlayers",
      "outputs": [
        {
          "internalType": "uint256",
          "name": "",
          "type": "uint256"
        }
      ],
      "payable": false,
      "stateMutability": "view",
      "type": "function"
    },
    {
      "constant": true,
      "inputs": [
        {
          "internalType": "uint256",
          "name": "",
          "type": "uint256"
        }
      ],
      "name": "players",
      "outputs": [
        {
          "internalType": "address payable",
          "name": "",
          "type": "address"
        }
      ],
      "payable": false,
      "stateMutability": "view",
      "type": "function"
    },
    {
      "constant": true,
      "inputs": [],
      "name": "turn",
      "outputs": [
        {
          "internalType": "uint256",
          "name": "",
          "type": "uint256"
        }
      ],
      "payable": false,
      "stateMutability": "view",
      "type": "function"
    },
    {
      "constant": false,
      "inputs": [],
      "name": "registerParticipant",
      "outputs": [],
      "payable": true,
      "stateMutability": "payable",
      "type": "function"
    },
    {
      "constant": false,
      "inputs": [
        {
          "internalType": "bytes32",
          "name": "h",
          "type": "bytes32"
        }
      ],
      "name": "setDice",
      "outputs": [],
      "payable": false,
      "stateMutability": "nonpayable",
      "type": "function"
    },
    {
      "constant": false,
      "inputs": [
        {
          "internalType": "uint256",
          "name": "f",
          "type": "uint256"
        },
        {
          "internalType": "uint256",
          "name": "q",
          "type": "uint256"
        }
      ],
      "name": "makeBid",
      "outputs": [],
      "payable": false,
      "stateMutability": "nonpayable",
      "type": "function"
    },
    {
      "constant": false,
      "inputs": [
        {
          "internalType": "uint256",
          "name": "f1",
          "type": "uint256"
        },
        {
          "internalType": "uint256",
          "name": "f2",
          "type": "uint256"
        },
        {
          "internalType": "uint256",
          "name": "f3",
          "type": "uint256"
        },
        {
          "internalType": "uint256",
          "name": "f4",
          "type": "uint256"
        },
        {
          "internalType": "uint256",
          "name": "f5",
          "type": "uint256"
        },
        {
          "internalType": "uint256",
          "name": "nonce",
          "type": "uint256"
        }
      ],
      "name": "revealDice",
      "outputs": [],
      "payable": false,
      "stateMutability": "nonpayable",
      "type": "function"
    },
    {
      "constant": true,
      "inputs": [],
      "name": "challenge",
      "outputs": [
        {
          "internalType": "bool",
          "name": "",
          "type": "bool"
        }
      ],
      "payable": false,
      "stateMutability": "view",
      "type": "function"
    },
    {
      "constant": true,
      "inputs": [],
      "name": "getAllPlayers",
      "outputs": [
        {
          "internalType": "address payable[]",
          "name": "",
          "type": "address[]"
        }
      ],
      "payable": false,
      "stateMutability": "view",
      "type": "function"
    }
  ],
  "bytecode": "0x6080604052600a604051908082528060200260200182016040528015620000355781602001602082028038833980820191505090505b50600190805190602001906200004d92919062000125565b5060076040519080825280602002602001820160405280156200007f5781602001602082028038833980820191505090505b506003908051906020019062000097929190620001b4565b50348015620000a557600080fd5b5060006004819055506000600581905550600080819055506040518060e00160405280600060ff168152602001600060ff168152602001600060ff168152602001600060ff168152602001600060ff168152602001600060ff168152602001600060ff1681525060039060076200011e92919062000206565b50620002cb565b828054828255906000526020600020908101928215620001a1579160200282015b82811115620001a05782518260006101000a81548173ffffffffffffffffffffffffffffffffffffffff021916908373ffffffffffffffffffffffffffffffffffffffff1602179055509160200191906001019062000146565b5b509050620001b091906200025d565b5090565b828054828255906000526020600020908101928215620001f3579160200282015b82811115620001f2578251825591602001919060010190620001d5565b5b509050620002029190620002a3565b5090565b8280548282559060005260206000209081019282156200024a579160200282015b8281111562000249578251829060ff1690559160200191906001019062000227565b5b509050620002599190620002a3565b5090565b620002a091905b808211156200029c57600081816101000a81549073ffffffffffffffffffffffffffffffffffffffff02191690555060010162000264565b5090565b90565b620002c891905b80821115620002c4576000816000905550600101620002aa565b5090565b90565b6108ee80620002db6000396000f3fe6080604052600436106100c25760003560e01c8063aaa4f8051161007f578063d2ef739811610059578063d2ef7398146102c1578063ec1c4e84146102f0578063efa1c48214610347578063f71d96cb146103b3576100c2565b8063aaa4f80514610247578063adfcdc1114610272578063ccfc811b146102b7576100c2565b8063222617a7146100c75780632f57fbf0146100f2578063843dbb58146101495780638b299903146101b657806397b2f556146101e1578063a159fb541461020c575b600080fd5b3480156100d357600080fd5b506100dc61042e565b6040518082815260200191505060405180910390f35b3480156100fe57600080fd5b50610107610434565b604051808273ffffffffffffffffffffffffffffffffffffffff1673ffffffffffffffffffffffffffffffffffffffff16815260200191505060405180910390f35b34801561015557600080fd5b506101b4600480360360c081101561016c57600080fd5b8101908080359060200190929190803590602001909291908035906020019092919080359060200190929190803590602001909291908035906020019092919050505061045a565b005b3480156101c257600080fd5b506101cb61060a565b6040518082815260200191505060405180910390f35b3480156101ed57600080fd5b506101f6610610565b6040518082815260200191505060405180910390f35b34801561021857600080fd5b506102456004803603602081101561022f57600080fd5b8101908080359060200190929190505050610616565b005b34801561025357600080fd5b5061025c61065d565b6040518082815260200191505060405180910390f35b34801561027e57600080fd5b506102b56004803603604081101561029557600080fd5b810190808035906020019092919080359060200190929190505050610663565b005b6102bf6106b6565b005b3480156102cd57600080fd5b506102d661076d565b604051808215151515815260200191505060405180910390f35b3480156102fc57600080fd5b506103056107a8565b604051808273ffffffffffffffffffffffffffffffffffffffff1673ffffffffffffffffffffffffffffffffffffffff16815260200191505060405180910390f35b34801561035357600080fd5b5061035c6107ce565b6040518080602001828103825283818151815260200191508051906020019060200280838360005b8381101561039f578082015181840152602081019050610384565b505050509050019250505060405180910390f35b3480156103bf57600080fd5b506103ec600480360360208110156103d657600080fd5b810190808035906020019092919050505061085c565b604051808273ffffffffffffffffffffffffffffffffffffffff1673ffffffffffffffffffffffffffffffffffffffff16815260200191505060405180910390f35b60045481565b600660009054906101000a900473ffffffffffffffffffffffffffffffffffffffff1681565b600860003373ffffffffffffffffffffffffffffffffffffffff1673ffffffffffffffffffffffffffffffffffffffff16815260200190815260200160002054868686868686604051602001808781526020018681526020018581526020018481526020018381526020018281526020019650505050505050604051602081830303815290604052805190602001201461053f576040517f08c379a00000000000000000000000000000000000000000000000000000000081526004018080602001828103825260218152602001806108996021913960400191505060405180910390fd5b6003868154811061054c57fe5b90600052602060002001600081548092919060010191905055506003858154811061057357fe5b90600052602060002001600081548092919060010191905055506003848154811061059a57fe5b9060005260206000200160008154809291906001019190505550600383815481106105c157fe5b9060005260206000200160008154809291906001019190505550600382815481106105e857fe5b9060005260206000200160008154809291906001019190505550505050505050565b60025481565b60005481565b80600860003373ffffffffffffffffffffffffffffffffffffffff1673ffffffffffffffffffffffffffffffffffffffff1681526020019081526020016000208190555050565b60055481565b816004819055508060058190555033600660006101000a81548173ffffffffffffffffffffffffffffffffffffffff021916908373ffffffffffffffffffffffffffffffffffffffff1602179055505050565b336001600054815481106106c657fe5b9060005260206000200160006101000a81548173ffffffffffffffffffffffffffffffffffffffff021916908373ffffffffffffffffffffffffffffffffffffffff16021790555060008054141561075a5733600760006101000a81548173ffffffffffffffffffffffffffffffffffffffff021916908373ffffffffffffffffffffffffffffffffffffffff1602179055505b6000808154809291906001019190505550565b60008060036004548154811061077f57fe5b90600052602060002001549050600554811061079f5760009150506107a5565b60019150505b90565b600760009054906101000a900473ffffffffffffffffffffffffffffffffffffffff1681565b6060600180548060200260200160405190810160405280929190818152602001828054801561085257602002820191906000526020600020905b8160009054906101000a900473ffffffffffffffffffffffffffffffffffffffff1673ffffffffffffffffffffffffffffffffffffffff1681526020019060010190808311610808575b5050505050905090565b6001818154811061086957fe5b906000526020600020016000915054906101000a900473ffffffffffffffffffffffffffffffffffffffff168156fe52657665616c656420426964206f72204e6f6e636520646f6e2774206d61746368a265627a7a7231582033baa6411eaeaf4eb1d11eef427f48b6bbfa2e40cbe072ed9439f512f48d022164736f6c63430005100032",
  "source": "// SPDX-License-Identifier: MIT\npragma solidity >=0.4.22 <0.8.0;\n\ncontract LiarsDice {\n  uint public numPlayers;\n  address payable[] public players = new address payable[](10);\n\n  uint public turn;\n  uint[] private faceNumber = new uint[](7);\n\n  uint public bidFace;\n  uint public bidQuantity;\n  address payable public bidAddress;\n  address payable public curBidder;\n\n  // The dice faces are hashed and sent to contract\n  mapping(address => bytes32) private hashedDice;\n\n  // A constructor taking in the bidding time and revealing time as parameters\n  constructor () public {\n    bidFace = 0;\n    bidQuantity = 0;\n    numPlayers = 0;\n    faceNumber = [0,0,0,0,0,0,0];\n  }\n\n  // A function \n  function registerParticipant() public payable {\n    players[numPlayers] = msg.sender;\n    if(numPlayers == 0) curBidder = msg.sender;\n    numPlayers++;\n  }\n\n  function setDice(bytes32 h) public {\n    hashedDice[msg.sender] = h;\n  }\n\n  function makeBid(uint f, uint q) public {\n    bidFace = f;\n    bidQuantity = q;\n    bidAddress = msg.sender;\n  }\n\n  function revealDice(uint f1, uint f2, uint f3, uint f4, uint f5, uint nonce) public {\n    require(keccak256(abi.encodePacked(f1,f2,f3,f4,f5, nonce)) == hashedDice[msg.sender], \"Revealed Bid or Nonce don't match\");\n    faceNumber[f1]++;\n    faceNumber[f2]++;\n    faceNumber[f3]++;\n    faceNumber[f4]++;\n    faceNumber[f5]++;\n  }\n\n  function challenge() public view returns (bool){\n    uint quantity = faceNumber[bidFace];\n    if(quantity >= bidQuantity)\n      return false;\n    else\n      return true;\n  }\n\n  function getAllPlayers() public view returns (address payable[] memory) {\n    return players;\n  }\n}",
  "sourcePath": "/home/sankalp/courses/bc/liar-dice-dapp/contracts/LiarsDice.sol",
  "compiler": {
    "name": "solc",
    "version": "0.5.16+commit.9c3226ce.Emscripten.clang"
  },
  "schemaVersion": "3.2.4",
  "updatedAt": "2020-10-11T12:24:57.675Z",
  "devdoc": {
    "methods": {}
  },
  "userdoc": {
    "methods": {}
  }
}