{
  "contractName": "LiarsDice",
  "abi": [
    {
      "inputs": [],
      "payable": false,
      "stateMutability": "nonpayable",
      "type": "constructor"
    },
    {
      "constant": true,
      "inputs": [],
      "name": "bidAddress",
      "outputs": [
        {
          "internalType": "address payable",
          "name": "",
          "type": "address"
        }
      ],
      "payable": false,
      "stateMutability": "view",
      "type": "function"
    },
    {
      "constant": true,
      "inputs": [],
      "name": "bidFace",
      "outputs": [
        {
          "internalType": "uint256",
          "name": "",
          "type": "uint256"
        }
      ],
      "payable": false,
      "stateMutability": "view",
      "type": "function"
    },
    {
      "constant": true,
      "inputs": [],
      "name": "bidQuantity",
      "outputs": [
        {
          "internalType": "uint256",
          "name": "",
          "type": "uint256"
        }
      ],
      "payable": false,
      "stateMutability": "view",
      "type": "function"
    },
    {
      "constant": true,
      "inputs": [],
      "name": "noPlayers",
      "outputs": [
        {
          "internalType": "uint256",
          "name": "",
          "type": "uint256"
        }
      ],
      "payable": false,
      "stateMutability": "view",
      "type": "function"
    },
    {
      "constant": true,
      "inputs": [
        {
          "internalType": "uint256",
          "name": "",
          "type": "uint256"
        }
      ],
      "name": "players",
      "outputs": [
        {
          "internalType": "address payable",
          "name": "",
          "type": "address"
        }
      ],
      "payable": false,
      "stateMutability": "view",
      "type": "function"
    },
    {
      "constant": true,
      "inputs": [],
      "name": "turn",
      "outputs": [
        {
          "internalType": "uint256",
          "name": "",
          "type": "uint256"
        }
      ],
      "payable": false,
      "stateMutability": "view",
      "type": "function"
    },
    {
      "constant": false,
      "inputs": [],
      "name": "registerParticipant",
      "outputs": [],
      "payable": true,
      "stateMutability": "payable",
      "type": "function"
    },
    {
      "constant": false,
      "inputs": [
        {
          "internalType": "bytes32",
          "name": "h",
          "type": "bytes32"
        }
      ],
      "name": "setDice",
      "outputs": [],
      "payable": false,
      "stateMutability": "nonpayable",
      "type": "function"
    },
    {
      "constant": false,
      "inputs": [
        {
          "internalType": "uint256",
          "name": "f",
          "type": "uint256"
        },
        {
          "internalType": "uint256",
          "name": "q",
          "type": "uint256"
        }
      ],
      "name": "makeBid",
      "outputs": [],
      "payable": false,
      "stateMutability": "nonpayable",
      "type": "function"
    },
    {
      "constant": false,
      "inputs": [
        {
          "internalType": "uint256",
          "name": "f1",
          "type": "uint256"
        },
        {
          "internalType": "uint256",
          "name": "f2",
          "type": "uint256"
        },
        {
          "internalType": "uint256",
          "name": "f3",
          "type": "uint256"
        },
        {
          "internalType": "uint256",
          "name": "f4",
          "type": "uint256"
        },
        {
          "internalType": "uint256",
          "name": "f5",
          "type": "uint256"
        }
      ],
      "name": "revealDice",
      "outputs": [],
      "payable": false,
      "stateMutability": "nonpayable",
      "type": "function"
    },
    {
      "constant": true,
      "inputs": [],
      "name": "challenge",
      "outputs": [
        {
          "internalType": "bool",
          "name": "",
          "type": "bool"
        }
      ],
      "payable": false,
      "stateMutability": "view",
      "type": "function"
    },
    {
      "constant": true,
      "inputs": [],
      "name": "getAllPlayers",
      "outputs": [
        {
          "internalType": "address payable[]",
          "name": "",
          "type": "address[]"
        }
      ],
      "payable": false,
      "stateMutability": "view",
      "type": "function"
    }
  ],
  "bytecode": "0x6080604052600a6040519080825280602002602001820160405280156100345781602001602082028038833980820191505090505b506001908051906020019061004a92919061011b565b50600760405190808252806020026020018201604052801561007b5781602001602082028038833980820191505090505b50600390805190602001906100919291906101a5565b5034801561009e57600080fd5b5060006004819055506000600581905550600080819055506040518060e00160405280600060ff168152602001600060ff168152602001600060ff168152602001600060ff168152602001600060ff168152602001600060ff168152602001600060ff1681525060039060076101159291906101f2565b506102ac565b828054828255906000526020600020908101928215610194579160200282015b828111156101935782518260006101000a81548173ffffffffffffffffffffffffffffffffffffffff021916908373ffffffffffffffffffffffffffffffffffffffff1602179055509160200191906001019061013b565b5b5090506101a19190610244565b5090565b8280548282559060005260206000209081019282156101e1579160200282015b828111156101e05782518255916020019190600101906101c5565b5b5090506101ee9190610287565b5090565b828054828255906000526020600020908101928215610233579160200282015b82811115610232578251829060ff16905591602001919060010190610212565b5b5090506102409190610287565b5090565b61028491905b8082111561028057600081816101000a81549073ffffffffffffffffffffffffffffffffffffffff02191690555060010161024a565b5090565b90565b6102a991905b808211156102a557600081600090555060010161028d565b5090565b90565b6107f7806102bb6000396000f3fe6080604052600436106100a75760003560e01c8063adfcdc1111610064578063adfcdc11146101ea578063ccfc811b1461022f578063d2ef739814610239578063efa1c48214610268578063f71d96cb146102d4578063f93898281461034f576100a7565b8063222617a7146100ac5780632f57fbf0146100d757806335f401031461012e5780638b29990314610159578063a159fb5414610184578063aaa4f805146101bf575b600080fd5b3480156100b857600080fd5b506100c16103b2565b6040518082815260200191505060405180910390f35b3480156100e357600080fd5b506100ec6103b8565b604051808273ffffffffffffffffffffffffffffffffffffffff1673ffffffffffffffffffffffffffffffffffffffff16815260200191505060405180910390f35b34801561013a57600080fd5b506101436103de565b6040518082815260200191505060405180910390f35b34801561016557600080fd5b5061016e6103e4565b6040518082815260200191505060405180910390f35b34801561019057600080fd5b506101bd600480360360208110156101a757600080fd5b81019080803590602001909291905050506103ea565b005b3480156101cb57600080fd5b506101d4610431565b6040518082815260200191505060405180910390f35b3480156101f657600080fd5b5061022d6004803603604081101561020d57600080fd5b810190808035906020019092919080359060200190929190505050610437565b005b61023761048a565b005b34801561024557600080fd5b5061024e6104f5565b604051808215151515815260200191505060405180910390f35b34801561027457600080fd5b5061027d610530565b6040518080602001828103825283818151815260200191508051906020019060200280838360005b838110156102c05780820151818401526020810190506102a5565b505050509050019250505060405180910390f35b3480156102e057600080fd5b5061030d600480360360208110156102f757600080fd5b81019080803590602001909291905050506105be565b604051808273ffffffffffffffffffffffffffffffffffffffff1673ffffffffffffffffffffffffffffffffffffffff16815260200191505060405180910390f35b34801561035b57600080fd5b506103b0600480360360a081101561037257600080fd5b8101908080359060200190929190803590602001909291908035906020019092919080359060200190929190803590602001909291905050506105fa565b005b60045481565b600660009054906101000a900473ffffffffffffffffffffffffffffffffffffffff1681565b60005481565b60025481565b80600760003373ffffffffffffffffffffffffffffffffffffffff1673ffffffffffffffffffffffffffffffffffffffff1681526020019081526020016000208190555050565b60055481565b816004819055508060058190555033600660006101000a81548173ffffffffffffffffffffffffffffffffffffffff021916908373ffffffffffffffffffffffffffffffffffffffff1602179055505050565b3360016000548154811061049a57fe5b9060005260206000200160006101000a81548173ffffffffffffffffffffffffffffffffffffffff021916908373ffffffffffffffffffffffffffffffffffffffff1602179055506000808154809291906001019190505550565b60008060036004548154811061050757fe5b90600052602060002001549050600554811061052757600091505061052d565b60019150505b90565b606060018054806020026020016040519081016040528092919081815260200182805480156105b457602002820191906000526020600020905b8160009054906101000a900473ffffffffffffffffffffffffffffffffffffffff1673ffffffffffffffffffffffffffffffffffffffff168152602001906001019080831161056a575b5050505050905090565b600181815481106105cb57fe5b906000526020600020016000915054906101000a900473ffffffffffffffffffffffffffffffffffffffff1681565b600760003373ffffffffffffffffffffffffffffffffffffffff1673ffffffffffffffffffffffffffffffffffffffff168152602001908152602001600020548585858585604051602001808681526020018581526020018481526020018381526020018281526020019550505050505060405160208183030381529060405280519060200120146106d7576040517f08c379a00000000000000000000000000000000000000000000000000000000081526004018080602001828103825260218152602001806107a26021913960400191505060405180910390fd5b600385815481106106e457fe5b90600052602060002001600081548092919060010191905055506003848154811061070b57fe5b90600052602060002001600081548092919060010191905055506003838154811061073257fe5b90600052602060002001600081548092919060010191905055506003828154811061075957fe5b90600052602060002001600081548092919060010191905055506003818154811061078057fe5b9060005260206000200160008154809291906001019190505550505050505056fe52657665616c656420426964206f72204e6f6e636520646f6e2774206d61746368a265627a7a72315820fab8815bd0790a118867046c9a37fc244678c704b4b05d2362d239f8b4bc36b964736f6c63430005100032",
  "source": "// SPDX-License-Identifier: MIT\npragma solidity >=0.4.22 <0.8.0;\n\ncontract LiarsDice {\n  uint public noPlayers;\n  address payable[] public players = new address payable[](10);\n\n  uint public turn;\n  uint[] private faceNumber = new uint[](7);\n\n  uint public bidFace;\n  uint public bidQuantity;\n  address payable public bidAddress;\n\n  // The bids are stored in a hashed format so that it is not visible even to the seller\n  mapping(address => bytes32) private hashedDice;\n\n  // A constructor taking in the bidding time and revealing time as parameters\n  constructor () public {\n    bidFace = 0;\n    bidQuantity = 0;\n    noPlayers = 0;\n    faceNumber = [0,0,0,0,0,0,0];\n  }\n\n  // A function to be called by the highBidder with the secondBid value to pay to the owner\n  function registerParticipant() public payable {\n    // players[noPlayers] = new Player(msg.sender,5);\n    players[noPlayers] = msg.sender;\n    noPlayers++;\n  }\n\n  function setDice(bytes32 h) public {\n    hashedDice[msg.sender] = h;\n  }\n\n  function makeBid(uint f, uint q) public {\n    bidFace = f;\n    bidQuantity = q;\n    bidAddress = msg.sender;\n  }\n\n  function revealDice(uint f1, uint f2, uint f3, uint f4, uint f5) public {\n    require(keccak256(abi.encodePacked(f1,f2,f3,f4,f5)) == hashedDice[msg.sender], \"Revealed Bid or Nonce don't match\");\n    faceNumber[f1]++;\n    faceNumber[f2]++;\n    faceNumber[f3]++;\n    faceNumber[f4]++;\n    faceNumber[f5]++;\n  }\n\n  function challenge() public view returns (bool){\n    uint quantity = faceNumber[bidFace];\n    if(quantity >= bidQuantity)\n      return false;\n    else\n      return true;\n  }\n\n  function getAllPlayers() public view returns (address payable[] memory) {\n    return players;\n  }\n}",
  "sourcePath": "/home/mayank/Study/BC/liar-dice-dapp/contracts/LiarsDice.sol",
  "compiler": {
    "name": "solc",
    "version": "0.5.16+commit.9c3226ce.Emscripten.clang"
  },
  "schemaVersion": "3.2.4",
  "updatedAt": "2020-10-08T20:52:28.947Z",
  "networkType": "ethereum",
  "devdoc": {
    "methods": {}
  },
  "userdoc": {
    "methods": {}
  }
}