{
  "contractName": "LiarsDice",
  "abi": [
    {
      "inputs": [],
      "payable": false,
      "stateMutability": "nonpayable",
      "type": "constructor"
    },
    {
      "constant": true,
      "inputs": [],
      "name": "bidAddress",
      "outputs": [
        {
          "internalType": "address payable",
          "name": "",
          "type": "address"
        }
      ],
      "payable": false,
      "stateMutability": "view",
      "type": "function"
    },
    {
      "constant": true,
      "inputs": [],
      "name": "bidFace",
      "outputs": [
        {
          "internalType": "uint256",
          "name": "",
          "type": "uint256"
        }
      ],
      "payable": false,
      "stateMutability": "view",
      "type": "function"
    },
    {
      "constant": true,
      "inputs": [],
      "name": "bidQuantity",
      "outputs": [
        {
          "internalType": "uint256",
          "name": "",
          "type": "uint256"
        }
      ],
      "payable": false,
      "stateMutability": "view",
      "type": "function"
    },
    {
      "constant": true,
      "inputs": [],
      "name": "numPlayers",
      "outputs": [
        {
          "internalType": "uint256",
          "name": "",
          "type": "uint256"
        }
      ],
      "payable": false,
      "stateMutability": "view",
      "type": "function"
    },
    {
      "constant": true,
      "inputs": [
        {
          "internalType": "uint256",
          "name": "",
          "type": "uint256"
        }
      ],
      "name": "players",
      "outputs": [
        {
          "internalType": "address payable",
          "name": "",
          "type": "address"
        }
      ],
      "payable": false,
      "stateMutability": "view",
      "type": "function"
    },
    {
      "constant": true,
      "inputs": [],
      "name": "turn",
      "outputs": [
        {
          "internalType": "uint256",
          "name": "",
          "type": "uint256"
        }
      ],
      "payable": false,
      "stateMutability": "view",
      "type": "function"
    },
    {
      "constant": false,
      "inputs": [],
      "name": "registerParticipant",
      "outputs": [],
      "payable": true,
      "stateMutability": "payable",
      "type": "function"
    },
    {
      "constant": false,
      "inputs": [
        {
          "internalType": "bytes32",
          "name": "h",
          "type": "bytes32"
        }
      ],
      "name": "setDice",
      "outputs": [],
      "payable": false,
      "stateMutability": "nonpayable",
      "type": "function"
    },
    {
      "constant": false,
      "inputs": [
        {
          "internalType": "uint256",
          "name": "f",
          "type": "uint256"
        },
        {
          "internalType": "uint256",
          "name": "q",
          "type": "uint256"
        }
      ],
      "name": "makeBid",
      "outputs": [],
      "payable": false,
      "stateMutability": "nonpayable",
      "type": "function"
    },
    {
      "constant": false,
      "inputs": [
        {
          "internalType": "uint256",
          "name": "f1",
          "type": "uint256"
        },
        {
          "internalType": "uint256",
          "name": "f2",
          "type": "uint256"
        },
        {
          "internalType": "uint256",
          "name": "f3",
          "type": "uint256"
        },
        {
          "internalType": "uint256",
          "name": "f4",
          "type": "uint256"
        },
        {
          "internalType": "uint256",
          "name": "f5",
          "type": "uint256"
        },
        {
          "internalType": "uint256",
          "name": "nonce",
          "type": "uint256"
        }
      ],
      "name": "revealDice",
      "outputs": [],
      "payable": false,
      "stateMutability": "nonpayable",
      "type": "function"
    },
    {
      "constant": true,
      "inputs": [],
      "name": "challenge",
      "outputs": [
        {
          "internalType": "bool",
          "name": "",
          "type": "bool"
        }
      ],
      "payable": false,
      "stateMutability": "view",
      "type": "function"
    },
    {
      "constant": true,
      "inputs": [],
      "name": "getAllPlayers",
      "outputs": [
        {
          "internalType": "address payable[]",
          "name": "",
          "type": "address[]"
        }
      ],
      "payable": false,
      "stateMutability": "view",
      "type": "function"
    }
  ],
  "bytecode": "0x6080604052600a6040519080825280602002602001820160405280156100345781602001602082028038833980820191505090505b506001908051906020019061004a92919061011b565b50600760405190808252806020026020018201604052801561007b5781602001602082028038833980820191505090505b50600390805190602001906100919291906101a5565b5034801561009e57600080fd5b5060006004819055506000600581905550600080819055506040518060e00160405280600060ff168152602001600060ff168152602001600060ff168152602001600060ff168152602001600060ff168152602001600060ff168152602001600060ff1681525060039060076101159291906101f2565b506102ac565b828054828255906000526020600020908101928215610194579160200282015b828111156101935782518260006101000a81548173ffffffffffffffffffffffffffffffffffffffff021916908373ffffffffffffffffffffffffffffffffffffffff1602179055509160200191906001019061013b565b5b5090506101a19190610244565b5090565b8280548282559060005260206000209081019282156101e1579160200282015b828111156101e05782518255916020019190600101906101c5565b5b5090506101ee9190610287565b5090565b828054828255906000526020600020908101928215610233579160200282015b82811115610232578251829060ff16905591602001919060010190610212565b5b5090506102409190610287565b5090565b61028491905b8082111561028057600081816101000a81549073ffffffffffffffffffffffffffffffffffffffff02191690555060010161024a565b5090565b90565b6102a991905b808211156102a557600081600090555060010161028d565b5090565b90565b61080a806102bb6000396000f3fe6080604052600436106100a75760003560e01c8063aaa4f80511610064578063aaa4f8051461022c578063adfcdc1114610257578063ccfc811b1461029c578063d2ef7398146102a6578063efa1c482146102d5578063f71d96cb14610341576100a7565b8063222617a7146100ac5780632f57fbf0146100d7578063843dbb581461012e5780638b2999031461019b57806397b2f556146101c6578063a159fb54146101f1575b600080fd5b3480156100b857600080fd5b506100c16103bc565b6040518082815260200191505060405180910390f35b3480156100e357600080fd5b506100ec6103c2565b604051808273ffffffffffffffffffffffffffffffffffffffff1673ffffffffffffffffffffffffffffffffffffffff16815260200191505060405180910390f35b34801561013a57600080fd5b50610199600480360360c081101561015157600080fd5b810190808035906020019092919080359060200190929190803590602001909291908035906020019092919080359060200190929190803590602001909291905050506103e8565b005b3480156101a757600080fd5b506101b0610598565b6040518082815260200191505060405180910390f35b3480156101d257600080fd5b506101db61059e565b6040518082815260200191505060405180910390f35b3480156101fd57600080fd5b5061022a6004803603602081101561021457600080fd5b81019080803590602001909291905050506105a4565b005b34801561023857600080fd5b506102416105eb565b6040518082815260200191505060405180910390f35b34801561026357600080fd5b5061029a6004803603604081101561027a57600080fd5b8101908080359060200190929190803590602001909291905050506105f1565b005b6102a4610644565b005b3480156102b257600080fd5b506102bb6106af565b604051808215151515815260200191505060405180910390f35b3480156102e157600080fd5b506102ea6106ea565b6040518080602001828103825283818151815260200191508051906020019060200280838360005b8381101561032d578082015181840152602081019050610312565b505050509050019250505060405180910390f35b34801561034d57600080fd5b5061037a6004803603602081101561036457600080fd5b8101908080359060200190929190505050610778565b604051808273ffffffffffffffffffffffffffffffffffffffff1673ffffffffffffffffffffffffffffffffffffffff16815260200191505060405180910390f35b60045481565b600660009054906101000a900473ffffffffffffffffffffffffffffffffffffffff1681565b600760003373ffffffffffffffffffffffffffffffffffffffff1673ffffffffffffffffffffffffffffffffffffffff1681526020019081526020016000205486868686868660405160200180878152602001868152602001858152602001848152602001838152602001828152602001965050505050505060405160208183030381529060405280519060200120146104cd576040517f08c379a00000000000000000000000000000000000000000000000000000000081526004018080602001828103825260218152602001806107b56021913960400191505060405180910390fd5b600386815481106104da57fe5b90600052602060002001600081548092919060010191905055506003858154811061050157fe5b90600052602060002001600081548092919060010191905055506003848154811061052857fe5b90600052602060002001600081548092919060010191905055506003838154811061054f57fe5b90600052602060002001600081548092919060010191905055506003828154811061057657fe5b9060005260206000200160008154809291906001019190505550505050505050565b60025481565b60005481565b80600760003373ffffffffffffffffffffffffffffffffffffffff1673ffffffffffffffffffffffffffffffffffffffff1681526020019081526020016000208190555050565b60055481565b816004819055508060058190555033600660006101000a81548173ffffffffffffffffffffffffffffffffffffffff021916908373ffffffffffffffffffffffffffffffffffffffff1602179055505050565b3360016000548154811061065457fe5b9060005260206000200160006101000a81548173ffffffffffffffffffffffffffffffffffffffff021916908373ffffffffffffffffffffffffffffffffffffffff1602179055506000808154809291906001019190505550565b6000806003600454815481106106c157fe5b9060005260206000200154905060055481106106e15760009150506106e7565b60019150505b90565b6060600180548060200260200160405190810160405280929190818152602001828054801561076e57602002820191906000526020600020905b8160009054906101000a900473ffffffffffffffffffffffffffffffffffffffff1673ffffffffffffffffffffffffffffffffffffffff1681526020019060010190808311610724575b5050505050905090565b6001818154811061078557fe5b906000526020600020016000915054906101000a900473ffffffffffffffffffffffffffffffffffffffff168156fe52657665616c656420426964206f72204e6f6e636520646f6e2774206d61746368a265627a7a72315820740f66fefb12885fbf00abdda55b2a8401ef666b44e85cefc5402bf62f62c56e64736f6c63430005100032",
  "source": "// SPDX-License-Identifier: MIT\npragma solidity >=0.4.22 <0.8.0;\n\ncontract LiarsDice {\n  uint public numPlayers;\n  address payable[] public players = new address payable[](10);\n\n  uint public turn;\n  uint[] private faceNumber = new uint[](7);\n\n  uint public bidFace;\n  uint public bidQuantity;\n  address payable public bidAddress;\n\n  // The dice faces are hashed and sent to contract\n  mapping(address => bytes32) private hashedDice;\n\n  // A constructor taking in the bidding time and revealing time as parameters\n  constructor () public {\n    bidFace = 0;\n    bidQuantity = 0;\n    numPlayers = 0;\n    faceNumber = [0,0,0,0,0,0,0];\n  }\n\n  // A function \n  function registerParticipant() public payable {\n    // players[numPlayers] = new Player(msg.sender,5);\n    players[numPlayers] = msg.sender;\n    numPlayers++;\n  }\n\n  function setDice(bytes32 h) public {\n    hashedDice[msg.sender] = h;\n  }\n\n  function makeBid(uint f, uint q) public {\n    bidFace = f;\n    bidQuantity = q;\n    bidAddress = msg.sender;\n  }\n\n  function revealDice(uint f1, uint f2, uint f3, uint f4, uint f5, uint nonce) public {\n    require(keccak256(abi.encodePacked(f1,f2,f3,f4,f5, nonce)) == hashedDice[msg.sender], \"Revealed Bid or Nonce don't match\");\n    faceNumber[f1]++;\n    faceNumber[f2]++;\n    faceNumber[f3]++;\n    faceNumber[f4]++;\n    faceNumber[f5]++;\n  }\n\n  function challenge() public view returns (bool){\n    uint quantity = faceNumber[bidFace];\n    if(quantity >= bidQuantity)\n      return false;\n    else\n      return true;\n  }\n\n  function getAllPlayers() public view returns (address payable[] memory) {\n    return players;\n  }\n}",
  "sourcePath": "/home/sankalp/courses/bc/liar-dice-dapp/contracts/LiarsDice.sol",
  "compiler": {
    "name": "solc",
    "version": "0.5.16+commit.9c3226ce.Emscripten.clang"
  },
  "schemaVersion": "3.2.4",
  "updatedAt": "2020-10-09T12:57:27.960Z",
  "networkType": "ethereum",
  "devdoc": {
    "methods": {}
  },
  "userdoc": {
    "methods": {}
  }
}