{
  "contractName": "LiarsDice",
  "abi": [
    {
      "inputs": [],
      "payable": false,
      "stateMutability": "nonpayable",
      "type": "constructor"
    },
    {
      "constant": true,
      "inputs": [],
      "name": "bidAddress",
      "outputs": [
        {
          "internalType": "address payable",
          "name": "",
          "type": "address"
        }
      ],
      "payable": false,
      "stateMutability": "view",
      "type": "function"
    },
    {
      "constant": true,
      "inputs": [],
      "name": "bidFace",
      "outputs": [
        {
          "internalType": "uint256",
          "name": "",
          "type": "uint256"
        }
      ],
      "payable": false,
      "stateMutability": "view",
      "type": "function"
    },
    {
      "constant": true,
      "inputs": [],
      "name": "bidQuantity",
      "outputs": [
        {
          "internalType": "uint256",
          "name": "",
          "type": "uint256"
        }
      ],
      "payable": false,
      "stateMutability": "view",
      "type": "function"
    },
    {
      "constant": true,
      "inputs": [],
      "name": "challengeState",
      "outputs": [
        {
          "internalType": "uint256",
          "name": "",
          "type": "uint256"
        }
      ],
      "payable": false,
      "stateMutability": "view",
      "type": "function"
    },
    {
      "constant": true,
      "inputs": [],
      "name": "challenger",
      "outputs": [
        {
          "internalType": "address payable",
          "name": "",
          "type": "address"
        }
      ],
      "payable": false,
      "stateMutability": "view",
      "type": "function"
    },
    {
      "constant": true,
      "inputs": [],
      "name": "curBidder",
      "outputs": [
        {
          "internalType": "address payable",
          "name": "",
          "type": "address"
        }
      ],
      "payable": false,
      "stateMutability": "view",
      "type": "function"
    },
    {
      "constant": true,
      "inputs": [],
      "name": "loser",
      "outputs": [
        {
          "internalType": "address payable",
          "name": "",
          "type": "address"
        }
      ],
      "payable": false,
      "stateMutability": "view",
      "type": "function"
    },
    {
      "constant": true,
      "inputs": [],
      "name": "numPlayers",
      "outputs": [
        {
          "internalType": "uint256",
          "name": "",
          "type": "uint256"
        }
      ],
      "payable": false,
      "stateMutability": "view",
      "type": "function"
    },
    {
      "constant": true,
      "inputs": [
        {
          "internalType": "uint256",
          "name": "",
          "type": "uint256"
        }
      ],
      "name": "players",
      "outputs": [
        {
          "internalType": "address payable",
          "name": "",
          "type": "address"
        }
      ],
      "payable": false,
      "stateMutability": "view",
      "type": "function"
    },
    {
      "constant": true,
      "inputs": [],
      "name": "quantity",
      "outputs": [
        {
          "internalType": "uint256",
          "name": "",
          "type": "uint256"
        }
      ],
      "payable": false,
      "stateMutability": "view",
      "type": "function"
    },
    {
      "constant": true,
      "inputs": [],
      "name": "revealLeft",
      "outputs": [
        {
          "internalType": "uint256",
          "name": "",
          "type": "uint256"
        }
      ],
      "payable": false,
      "stateMutability": "view",
      "type": "function"
    },
    {
      "constant": true,
      "inputs": [],
      "name": "turn",
      "outputs": [
        {
          "internalType": "uint256",
          "name": "",
          "type": "uint256"
        }
      ],
      "payable": false,
      "stateMutability": "view",
      "type": "function"
    },
    {
      "constant": true,
      "inputs": [],
      "name": "winner",
      "outputs": [
        {
          "internalType": "address payable",
          "name": "",
          "type": "address"
        }
      ],
      "payable": false,
      "stateMutability": "view",
      "type": "function"
    },
    {
      "constant": true,
      "inputs": [],
      "name": "winnerIndex",
      "outputs": [
        {
          "internalType": "uint256",
          "name": "",
          "type": "uint256"
        }
      ],
      "payable": false,
      "stateMutability": "view",
      "type": "function"
    },
    {
      "constant": false,
      "inputs": [],
      "name": "registerParticipant",
      "outputs": [],
      "payable": true,
      "stateMutability": "payable",
      "type": "function"
    },
    {
      "constant": false,
      "inputs": [
        {
          "internalType": "bytes32",
          "name": "h",
          "type": "bytes32"
        }
      ],
      "name": "setDice",
      "outputs": [],
      "payable": false,
      "stateMutability": "nonpayable",
      "type": "function"
    },
    {
      "constant": false,
      "inputs": [
        {
          "internalType": "uint256",
          "name": "f",
          "type": "uint256"
        },
        {
          "internalType": "uint256",
          "name": "q",
          "type": "uint256"
        }
      ],
      "name": "makeBid",
      "outputs": [],
      "payable": false,
      "stateMutability": "nonpayable",
      "type": "function"
    },
    {
      "constant": false,
      "inputs": [],
      "name": "initiateChallenge",
      "outputs": [],
      "payable": true,
      "stateMutability": "payable",
      "type": "function"
    },
    {
      "constant": false,
      "inputs": [
        {
          "internalType": "uint256",
          "name": "f1",
          "type": "uint256"
        },
        {
          "internalType": "uint256",
          "name": "f2",
          "type": "uint256"
        },
        {
          "internalType": "uint256",
          "name": "f3",
          "type": "uint256"
        },
        {
          "internalType": "uint256",
          "name": "f4",
          "type": "uint256"
        },
        {
          "internalType": "uint256",
          "name": "f5",
          "type": "uint256"
        },
        {
          "internalType": "uint256",
          "name": "nonce",
          "type": "uint256"
        }
      ],
      "name": "revealDice",
      "outputs": [],
      "payable": false,
      "stateMutability": "nonpayable",
      "type": "function"
    },
    {
      "constant": false,
      "inputs": [],
      "name": "checkWin",
      "outputs": [],
      "payable": true,
      "stateMutability": "payable",
      "type": "function"
    },
    {
      "constant": false,
      "inputs": [],
      "name": "claimReward",
      "outputs": [],
      "payable": true,
      "stateMutability": "payable",
      "type": "function"
    },
    {
      "constant": true,
      "inputs": [],
      "name": "getAllPlayers",
      "outputs": [
        {
          "internalType": "address payable[]",
          "name": "",
          "type": "address[]"
        }
      ],
      "payable": false,
      "stateMutability": "view",
      "type": "function"
    }
  ],
  "bytecode": "0x6080604052600a604051908082528060200260200182016040528015620000355781602001602082028038833980820191505090505b50600190805190602001906200004d92919062000137565b5060076040519080825280602002602001820160405280156200007f5781602001602082028038833980820191505090505b506003908051906020019062000097929190620001c6565b50348015620000a557600080fd5b50600060028190555060006004819055506000600581905550600080819055506000801b6010819055506040518060e00160405280600060ff168152602001600060ff168152602001600060ff168152602001600060ff168152602001600060ff168152602001600060ff168152602001600060ff1681525060039060076200013092919062000218565b50620002dd565b828054828255906000526020600020908101928215620001b3579160200282015b82811115620001b25782518260006101000a81548173ffffffffffffffffffffffffffffffffffffffff021916908373ffffffffffffffffffffffffffffffffffffffff1602179055509160200191906001019062000158565b5b509050620001c291906200026f565b5090565b82805482825590600052602060002090810192821562000205579160200282015b8281111562000204578251825591602001919060010190620001e7565b5b509050620002149190620002b5565b5090565b8280548282559060005260206000209081019282156200025c579160200282015b828111156200025b578251829060ff1690559160200191906001019062000239565b5b5090506200026b9190620002b5565b5090565b620002b291905b80821115620002ae57600081816101000a81549073ffffffffffffffffffffffffffffffffffffffff02191690555060010162000276565b5090565b90565b620002da91905b80821115620002d6576000816000905550600101620002bc565b5090565b90565b610f5f80620002ed6000396000f3fe6080604052600436106101355760003560e01c8063a159fb54116100ab578063d24481ea1161006f578063d24481ea1461044b578063dfbf53ae14610455578063e82898b3146104ac578063ec1c4e8414610503578063efa1c4821461055a578063f71d96cb146105c657610135565b8063a159fb541461038c578063aaa4f805146103c7578063adfcdc11146103f2578063b88a802f14610437578063ccfc811b1461044157610135565b8063534db0e2116100fd578063534db0e21461021c578063843d5a5c14610273578063843dbb581461029e5780638b2999031461030b5780638f00cbfa1461033657806397b2f5561461036157610135565b80630193f63e1461013a57806317fc45e214610144578063222617a71461016f5780632f57fbf01461019a57806333915451146101f1575b600080fd5b610142610641565b005b34801561015057600080fd5b50610159610695565b6040518082815260200191505060405180910390f35b34801561017b57600080fd5b5061018461069b565b6040518082815260200191505060405180910390f35b3480156101a657600080fd5b506101af6106a1565b604051808273ffffffffffffffffffffffffffffffffffffffff1673ffffffffffffffffffffffffffffffffffffffff16815260200191505060405180910390f35b3480156101fd57600080fd5b506102066106c7565b6040518082815260200191505060405180910390f35b34801561022857600080fd5b506102316106cd565b604051808273ffffffffffffffffffffffffffffffffffffffff1673ffffffffffffffffffffffffffffffffffffffff16815260200191505060405180910390f35b34801561027f57600080fd5b506102886106f3565b6040518082815260200191505060405180910390f35b3480156102aa57600080fd5b50610309600480360360c08110156102c157600080fd5b810190808035906020019092919080359060200190929190803590602001909291908035906020019092919080359060200190929190803590602001909291905050506106f9565b005b34801561031757600080fd5b506103206108d0565b6040518082815260200191505060405180910390f35b34801561034257600080fd5b5061034b6108d6565b6040518082815260200191505060405180910390f35b34801561036d57600080fd5b506103766108dc565b6040518082815260200191505060405180910390f35b34801561039857600080fd5b506103c5600480360360208110156103af57600080fd5b81019080803590602001909291905050506108e2565b005b3480156103d357600080fd5b506103dc610929565b6040518082815260200191505060405180910390f35b3480156103fe57600080fd5b506104356004803603604081101561041557600080fd5b81019080803590602001909291908035906020019092919050505061092f565b005b61043f610a13565b005b610449610a86565b005b610453610b75565b005b34801561046157600080fd5b5061046a610dcd565b604051808273ffffffffffffffffffffffffffffffffffffffff1673ffffffffffffffffffffffffffffffffffffffff16815260200191505060405180910390f35b3480156104b857600080fd5b506104c1610df3565b604051808273ffffffffffffffffffffffffffffffffffffffff1673ffffffffffffffffffffffffffffffffffffffff16815260200191505060405180910390f35b34801561050f57600080fd5b50610518610e19565b604051808273ffffffffffffffffffffffffffffffffffffffff1673ffffffffffffffffffffffffffffffffffffffff16815260200191505060405180910390f35b34801561056657600080fd5b5061056f610e3f565b6040518080602001828103825283818151815260200191508051906020019060200280838360005b838110156105b2578082015181840152602081019050610597565b505050509050019250505060405180910390f35b3480156105d257600080fd5b506105ff600480360360208110156105e957600080fd5b8101908080359060200190929190505050610ecd565b604051808273ffffffffffffffffffffffffffffffffffffffff1673ffffffffffffffffffffffffffffffffffffffff16815260200191505060405180910390f35b33600960006101000a81548173ffffffffffffffffffffffffffffffffffffffff021916908373ffffffffffffffffffffffffffffffffffffffff1602179055506001600a81905550600054600b81905550565b600f5481565b60045481565b600660009054906101000a900473ffffffffffffffffffffffffffffffffffffffff1681565b600b5481565b600960009054906101000a900473ffffffffffffffffffffffffffffffffffffffff1681565b600a5481565b600860003373ffffffffffffffffffffffffffffffffffffffff1673ffffffffffffffffffffffffffffffffffffffff1681526020019081526020016000205486868686868660405160200180878152602001868152602001858152602001848152602001838152602001828152602001965050505050505060405160208183030381529060405280519060200120146107de576040517f08c379a0000000000000000000000000000000000000000000000000000000008152600401808060200182810382526021815260200180610f0a6021913960400191505060405180910390fd5b600386815481106107eb57fe5b90600052602060002001600081548092919060010191905055506003858154811061081257fe5b90600052602060002001600081548092919060010191905055506003848154811061083957fe5b90600052602060002001600081548092919060010191905055506003838154811061086057fe5b90600052602060002001600081548092919060010191905055506003828154811061088757fe5b9060005260206000200160008154809291906001019190505550600b60008154809291906001900391905055506000600b5414156108c8576108c7610b75565b5b505050505050565b60025481565b600e5481565b60005481565b80600860003373ffffffffffffffffffffffffffffffffffffffff1673ffffffffffffffffffffffffffffffffffffffff1681526020019081526020016000208190555050565b60055481565b816004819055508060058190555033600660006101000a81548173ffffffffffffffffffffffffffffffffffffffff021916908373ffffffffffffffffffffffffffffffffffffffff1602179055506000546001600254018161098e57fe5b066002819055506001600254815481106109a457fe5b9060005260206000200160009054906101000a900473ffffffffffffffffffffffffffffffffffffffff16600760006101000a81548173ffffffffffffffffffffffffffffffffffffffff021916908373ffffffffffffffffffffffffffffffffffffffff1602179055505050565b600c60009054906101000a900473ffffffffffffffffffffffffffffffffffffffff1673ffffffffffffffffffffffffffffffffffffffff166108fc673782dace9d9000009081150290604051600060405180830381858888f19350505050158015610a83573d6000803e3d6000fd5b50565b33600160005481548110610a9657fe5b9060005260206000200160006101000a81548173ffffffffffffffffffffffffffffffffffffffff021916908373ffffffffffffffffffffffffffffffffffffffff160217905550600080541415610b62576001600081548110610af657fe5b9060005260206000200160009054906101000a900473ffffffffffffffffffffffffffffffffffffffff16600760006101000a81548173ffffffffffffffffffffffffffffffffffffffff021916908373ffffffffffffffffffffffffffffffffffffffff1602179055505b6000808154809291906001019190505550565b600360045481548110610b8457fe5b9060005260206000200154600f81905550600554600f5410610c8757600660009054906101000a900473ffffffffffffffffffffffffffffffffffffffff16600c60006101000a81548173ffffffffffffffffffffffffffffffffffffffff021916908373ffffffffffffffffffffffffffffffffffffffff160217905550600960009054906101000a900473ffffffffffffffffffffffffffffffffffffffff16600d60006101000a81548173ffffffffffffffffffffffffffffffffffffffff021916908373ffffffffffffffffffffffffffffffffffffffff160217905550600060025414610c7857600254610c7c565b6000545b600e81905550610d5a565b600960009054906101000a900473ffffffffffffffffffffffffffffffffffffffff16600c60006101000a81548173ffffffffffffffffffffffffffffffffffffffff021916908373ffffffffffffffffffffffffffffffffffffffff160217905550600660009054906101000a900473ffffffffffffffffffffffffffffffffffffffff16600d60006101000a81548173ffffffffffffffffffffffffffffffffffffffff021916908373ffffffffffffffffffffffffffffffffffffffff160217905550600160025401600e819055505b600c60009054906101000a900473ffffffffffffffffffffffffffffffffffffffff1673ffffffffffffffffffffffffffffffffffffffff166108fc673782dace9d9000009081150290604051600060405180830381858888f19350505050158015610dca573d6000803e3d6000fd5b50565b600c60009054906101000a900473ffffffffffffffffffffffffffffffffffffffff1681565b600d60009054906101000a900473ffffffffffffffffffffffffffffffffffffffff1681565b600760009054906101000a900473ffffffffffffffffffffffffffffffffffffffff1681565b60606001805480602002602001604051908101604052809291908181526020018280548015610ec357602002820191906000526020600020905b8160009054906101000a900473ffffffffffffffffffffffffffffffffffffffff1673ffffffffffffffffffffffffffffffffffffffff1681526020019060010190808311610e79575b5050505050905090565b60018181548110610eda57fe5b906000526020600020016000915054906101000a900473ffffffffffffffffffffffffffffffffffffffff168156fe52657665616c656420426964206f72204e6f6e636520646f6e2774206d61746368a265627a7a723158206d8f0b586760b3e979f6949bcbe76659874ebb2944a5eaad0b0f2289a076a46664736f6c63430005100032",
  "source": "// SPDX-License-Identifier: MIT\npragma solidity >=0.4.22 <0.8.0;\n\n/*******************************************************************************\n * A brief history of Liars Dice.\n *\n * Liars dice game made using smart contracts. It starts with\n * a forward slash followed by some number, n, of asterisks, where n > 2. It's\n * written this way to be more \"visible\" to developers who are reading the\n * source code.\n *\n * Often, developers are unaware that this is not (by default) a valid Doxygen\n * comment block!\n *\n *\n * This style of commenting behaves well with clang-format.\n *\n * Even if there is only one possible unified theory. it is just a\n *               set of rules and equations.\n ******************************************************************************/\n\ncontract LiarsDice {\n    uint256 public numPlayers;\n    address payable[] public players = new address payable[](10);\n\n    uint256 public turn;\n    uint256[] private faceNumber = new uint256[](7);\n\n    uint256 public bidFace;\n    uint256 public bidQuantity;\n    address payable public bidAddress;\n    address payable public curBidder;\n\n    // The dice faces are hashed and sent to contract\n    mapping(address => bytes32) private hashedDice;\n    address payable public challenger;\n    uint256 public challengeState;\n    uint256 public revealLeft;\n    address payable public winner;\n    address payable public loser;\n    uint256 public winnerIndex;\n    uint256 public quantity;\n    bytes32 private baseHash;\n\n    // A constructor taking in the bidding time and revealing time as parameters\n    /** constructor for contract. \n     *  The documentation block cannot be put after the con! \n     */\n    constructor() public {\n        turn = 0;\n        bidFace = 0;\n        bidQuantity = 0;\n        numPlayers = 0;\n        baseHash = 0;\n        faceNumber = [0, 0, 0, 0, 0, 0, 0];\n    }\n\n    /** Function of Solidity. \n     *  The documentation block cannot be put after the enum! \n     */\n    function registerParticipant() public payable {\n        players[numPlayers] = msg.sender;\n        if (numPlayers == 0) curBidder = players[0];\n        numPlayers++;\n    }\n\n    \n    function setDice(bytes32 h) public {\n        hashedDice[msg.sender] = h;\n    }\n\n    /** Function of Solidity. \n     *  The documentation block cannot be put after the enum! \n     */\n    function makeBid(uint256 f, uint256 q) public {\n        bidFace = f;\n        bidQuantity = q;\n        bidAddress = msg.sender;\n        turn = (turn + 1) % numPlayers;\n        curBidder = players[turn];\n    }\n\n    function initiateChallenge() public payable {\n        challenger = msg.sender;\n        challengeState = 1;\n        revealLeft = numPlayers;\n    }\n\n    /** Function of Solidity. \n     *  The documentation block cannot be put after the enum! \n     */\n    function revealDice(\n        uint256 f1,\n        uint256 f2,\n        uint256 f3,\n        uint256 f4,\n        uint256 f5,\n        uint256 nonce\n    ) public {\n        require(\n            keccak256(abi.encodePacked(f1, f2, f3, f4, f5, nonce)) ==\n                hashedDice[msg.sender],\n            \"Revealed Bid or Nonce don't match\"\n        );\n        faceNumber[f1]++;\n        faceNumber[f2]++;\n        faceNumber[f3]++;\n        faceNumber[f4]++;\n        faceNumber[f5]++;\n        revealLeft--;\n        if (revealLeft == 0) {\n            checkWin();\n        }\n    }\n\n    function checkWin() public payable {\n        quantity = faceNumber[bidFace];\n        if (quantity >= bidQuantity) {\n            winner = bidAddress;\n            loser = challenger;\n            winnerIndex = (turn == 0) ? numPlayers : turn;\n        } else {\n            winner = challenger;\n            loser = bidAddress;\n            winnerIndex = (turn + 1);\n        }\n        winner.transfer(4e18);\n    }\n\n    function claimReward() public payable{\n        winner.transfer(4e18);\n\n        // require(hashedDice[msg.sender] != baseHash, \"kitni baar claim karega\");\n        // hashedDice[msg.sender] = baseHash;\n        // numPlayers--;\n        // if(numPlayers == 0){\n        //     turn = 0;\n        //     bidFace = 0;\n        //     bidQuantity = 0;\n        //     faceNumber = [0, 0, 0, 0, 0, 0, 0];\n        // }\n        // address payable toSend = msg.sender;\n        // // require(msg.sender != loser, \"You lost, you will not receive even a single penny !\");\n        // if(msg.sender == winner){\n        //     toSend.transfer(4e18);\n        // }\n        // else{\n        //     toSend.transfer(2e18);\n        // }\n    }\n\n    /** Function of Solidity. \n     *  The documentation block cannot be put after the enum! \n     */\n    function getAllPlayers() public view returns (address payable[] memory) {\n        return players;\n    }\n}\n",
  "sourcePath": "/home/sankalp/courses/bc/liar-dice-dapp/contracts/LiarsDice.sol",
  "compiler": {
    "name": "solc",
    "version": "0.5.16+commit.9c3226ce.Emscripten.clang"
  },
  "schemaVersion": "3.2.4",
  "updatedAt": "2020-10-11T23:55:56.199Z",
  "networkType": "ethereum",
  "devdoc": {
    "methods": {}
  },
  "userdoc": {
    "methods": {
      "constructor": "constructor for contract.  The documentation block cannot be put after the con! ",
      "getAllPlayers()": {
        "notice": "Function of Solidity.  The documentation block cannot be put after the enum! "
      },
      "makeBid(uint256,uint256)": {
        "notice": "Function of Solidity.  The documentation block cannot be put after the enum! "
      },
      "registerParticipant()": {
        "notice": "Function of Solidity.  The documentation block cannot be put after the enum! "
      },
      "revealDice(uint256,uint256,uint256,uint256,uint256,uint256)": {
        "notice": "Function of Solidity.  The documentation block cannot be put after the enum! "
      }
    },
    "notice": "***************************************************************************** A brief history of Liars Dice. * Liars dice game made using smart contracts. It starts with a forward slash followed by some number, n, of asterisks, where n > 2. It's written this way to be more \"visible\" to developers who are reading the source code. * Often, developers are unaware that this is not (by default) a valid Doxygen comment block! * This style of commenting behaves well with clang-format. * Even if there is only one possible unified theory. it is just a              set of rules and equations.*****************************************************************************"
  }
}