{
  "contractName": "LiarsDice",
  "abi": [
    {
      "inputs": [],
      "payable": false,
      "stateMutability": "nonpayable",
      "type": "constructor"
    },
    {
      "constant": true,
      "inputs": [],
      "name": "lastBid",
      "outputs": [
        {
          "internalType": "contract Bid",
          "name": "",
          "type": "address"
        }
      ],
      "payable": false,
      "stateMutability": "view",
      "type": "function"
    },
    {
      "constant": true,
      "inputs": [],
      "name": "noPlayers",
      "outputs": [
        {
          "internalType": "uint256",
          "name": "",
          "type": "uint256"
        }
      ],
      "payable": false,
      "stateMutability": "view",
      "type": "function"
    },
    {
      "constant": true,
      "inputs": [
        {
          "internalType": "uint256",
          "name": "",
          "type": "uint256"
        }
      ],
      "name": "players",
      "outputs": [
        {
          "internalType": "contract Player",
          "name": "",
          "type": "address"
        }
      ],
      "payable": false,
      "stateMutability": "view",
      "type": "function"
    },
    {
      "constant": true,
      "inputs": [],
      "name": "turn",
      "outputs": [
        {
          "internalType": "uint256",
          "name": "",
          "type": "uint256"
        }
      ],
      "payable": false,
      "stateMutability": "view",
      "type": "function"
    },
    {
      "constant": false,
      "inputs": [],
      "name": "registerParticipant",
      "outputs": [],
      "payable": true,
      "stateMutability": "payable",
      "type": "function"
    },
    {
      "constant": false,
      "inputs": [
        {
          "internalType": "bytes32",
          "name": "h",
          "type": "bytes32"
        }
      ],
      "name": "setDice",
      "outputs": [],
      "payable": false,
      "stateMutability": "nonpayable",
      "type": "function"
    },
    {
      "constant": false,
      "inputs": [
        {
          "internalType": "uint256",
          "name": "f",
          "type": "uint256"
        },
        {
          "internalType": "uint256",
          "name": "q",
          "type": "uint256"
        }
      ],
      "name": "bid",
      "outputs": [],
      "payable": false,
      "stateMutability": "nonpayable",
      "type": "function"
    },
    {
      "constant": false,
      "inputs": [
        {
          "internalType": "uint256",
          "name": "f1",
          "type": "uint256"
        },
        {
          "internalType": "uint256",
          "name": "f2",
          "type": "uint256"
        },
        {
          "internalType": "uint256",
          "name": "f3",
          "type": "uint256"
        },
        {
          "internalType": "uint256",
          "name": "f4",
          "type": "uint256"
        },
        {
          "internalType": "uint256",
          "name": "f5",
          "type": "uint256"
        }
      ],
      "name": "revealDice",
      "outputs": [],
      "payable": false,
      "stateMutability": "nonpayable",
      "type": "function"
    },
    {
      "constant": true,
      "inputs": [],
      "name": "challenge",
      "outputs": [
        {
          "internalType": "bool",
          "name": "",
          "type": "bool"
        }
      ],
      "payable": false,
      "stateMutability": "view",
      "type": "function"
    }
  ],
  "bytecode": "0x60806040526007604051908082528060200260200182016040528015620000355781602001602082028038833980820191505090505b50600290805190602001906200004d92919062000240565b506040516200005c9062000292565b604051809103906000f08015801562000079573d6000803e3d6000fd5b50600360006101000a81548173ffffffffffffffffffffffffffffffffffffffff021916908373ffffffffffffffffffffffffffffffffffffffff160217905550600a604051908082528060200260200182016040528015620000eb5781602001602082028038833980820191505090505b506004908051906020019062000103929190620002a0565b503480156200011157600080fd5b50600360009054906101000a900473ffffffffffffffffffffffffffffffffffffffff1673ffffffffffffffffffffffffffffffffffffffff1663711283d1600160006040518363ffffffff1660e01b81526004018083815260200182815260200192505050602060405180830381600087803b1580156200019257600080fd5b505af1158015620001a7573d6000803e3d6000fd5b505050506040513d6020811015620001be57600080fd5b81019080805190602001909291905050505060046000819055506040518060e00160405280600060ff168152602001600060ff168152602001600060ff168152602001600060ff168152602001600060ff168152602001600060ff168152602001600060ff168152506002906007620002399291906200032f565b50620003f4565b8280548282559060005260206000209081019282156200027f579160200282015b828111156200027e57825182559160200191906001019062000261565b5b5090506200028e919062000386565b5090565b6102098062000ec183390190565b8280548282559060005260206000209081019282156200031c579160200282015b828111156200031b5782518260006101000a81548173ffffffffffffffffffffffffffffffffffffffff021916908373ffffffffffffffffffffffffffffffffffffffff16021790555091602001919060010190620002c1565b5b5090506200032b9190620003ae565b5090565b82805482825590600052602060002090810192821562000373579160200282015b8281111562000372578251829060ff1690559160200191906001019062000350565b5b50905062000382919062000386565b5090565b620003ab91905b80821115620003a75760008160009055506001016200038d565b5090565b90565b620003f191905b80821115620003ed57600081816101000a81549073ffffffffffffffffffffffffffffffffffffffff021916905550600101620003b5565b5090565b90565b610abd80620004046000396000f3fe6080604052600436106100865760003560e01c8063a159fb5411610059578063a159fb541461017d578063ccfc811b146101b8578063d2ef7398146101c2578063f71d96cb146101f1578063f93898281461026c57610086565b806335f401031461008b578063598647f8146100b65780635e3d3957146100fb5780638b29990314610152575b600080fd5b34801561009757600080fd5b506100a06102cf565b6040518082815260200191505060405180910390f35b3480156100c257600080fd5b506100f9600480360360408110156100d957600080fd5b8101908080359060200190929190803590602001909291905050506102d5565b005b34801561010757600080fd5b50610110610416565b604051808273ffffffffffffffffffffffffffffffffffffffff1673ffffffffffffffffffffffffffffffffffffffff16815260200191505060405180910390f35b34801561015e57600080fd5b5061016761043c565b6040518082815260200191505060405180910390f35b34801561018957600080fd5b506101b6600480360360208110156101a057600080fd5b8101908080359060200190929190505050610442565b005b6101c0610489565b005b3480156101ce57600080fd5b506101d761055c565b604051808215151515815260200191505060405180910390f35b3480156101fd57600080fd5b5061022a6004803603602081101561021457600080fd5b81019080803590602001909291905050506106d7565b604051808273ffffffffffffffffffffffffffffffffffffffff1673ffffffffffffffffffffffffffffffffffffffff16815260200191505060405180910390f35b34801561027857600080fd5b506102cd600480360360a081101561028f57600080fd5b810190808035906020019092919080359060200190929190803590602001909291908035906020019092919080359060200190929190505050610713565b005b60005481565b600182101580156102e7575060068211155b610359576040517f08c379a00000000000000000000000000000000000000000000000000000000081526004018080602001828103825260138152602001807f446963652046616365204e6f742056616c69640000000000000000000000000081525060200191505060405180910390fd5b600360009054906101000a900473ffffffffffffffffffffffffffffffffffffffff1673ffffffffffffffffffffffffffffffffffffffff1663711283d183836040518363ffffffff1660e01b81526004018083815260200182815260200192505050602060405180830381600087803b1580156103d657600080fd5b505af11580156103ea573d6000803e3d6000fd5b505050506040513d602081101561040057600080fd5b8101908080519060200190929190505050505050565b600360009054906101000a900473ffffffffffffffffffffffffffffffffffffffff1681565b60015481565b80600560003373ffffffffffffffffffffffffffffffffffffffff1673ffffffffffffffffffffffffffffffffffffffff1681526020019081526020016000208190555050565b336005604051610498906108ba565b808373ffffffffffffffffffffffffffffffffffffffff1673ffffffffffffffffffffffffffffffffffffffff16815260200182815260200192505050604051809103906000f0801580156104f1573d6000803e3d6000fd5b5060046000548154811061050157fe5b9060005260206000200160006101000a81548173ffffffffffffffffffffffffffffffffffffffff021916908373ffffffffffffffffffffffffffffffffffffffff1602179055506000808154809291906001019190505550565b6000806002600360009054906101000a900473ffffffffffffffffffffffffffffffffffffffff1673ffffffffffffffffffffffffffffffffffffffff16631c582cf76040518163ffffffff1660e01b815260040160206040518083038186803b1580156105c957600080fd5b505afa1580156105dd573d6000803e3d6000fd5b505050506040513d60208110156105f357600080fd5b81019080805190602001909291905050508154811061060e57fe5b90600052602060002001549050600360009054906101000a900473ffffffffffffffffffffffffffffffffffffffff1673ffffffffffffffffffffffffffffffffffffffff166317fc45e26040518163ffffffff1660e01b815260040160206040518083038186803b15801561068357600080fd5b505afa158015610697573d6000803e3d6000fd5b505050506040513d60208110156106ad57600080fd5b810190808051906020019092919050505081106106ce5760009150506106d4565b60019150505b90565b600481815481106106e457fe5b906000526020600020016000915054906101000a900473ffffffffffffffffffffffffffffffffffffffff1681565b600560003373ffffffffffffffffffffffffffffffffffffffff1673ffffffffffffffffffffffffffffffffffffffff168152602001908152602001600020548585858585604051602001808681526020018581526020018481526020018381526020018281526020019550505050505060405160208183030381529060405280519060200120146107f0576040517f08c379a0000000000000000000000000000000000000000000000000000000008152600401808060200182810382526021815260200180610a686021913960400191505060405180910390fd5b600285815481106107fd57fe5b90600052602060002001600081548092919060010191905055506002848154811061082457fe5b90600052602060002001600081548092919060010191905055506002838154811061084b57fe5b90600052602060002001600081548092919060010191905055506002828154811061087257fe5b90600052602060002001600081548092919060010191905055506002818154811061089957fe5b90600052602060002001600081548092919060010191905055505050505050565b6101a0806108c88339019056fe608060405234801561001057600080fd5b506040516101a03803806101a08339818101604052604081101561003357600080fd5b810190808051906020019092919080519060200190929190505050816000806101000a81548173ffffffffffffffffffffffffffffffffffffffff021916908373ffffffffffffffffffffffffffffffffffffffff16021790555080600181905550505060fb806100a56000396000f3fe6080604052348015600f57600080fd5b506004361060325760003560e01c8063af640d0f146037578063b6acffde14607f575b600080fd5b603d609b565b604051808273ffffffffffffffffffffffffffffffffffffffff1673ffffffffffffffffffffffffffffffffffffffff16815260200191505060405180910390f35b608560c0565b6040518082815260200191505060405180910390f35b6000809054906101000a900473ffffffffffffffffffffffffffffffffffffffff1681565b6001548156fea265627a7a723158201554e0a0cdf13e6ff99e6d2be2941aeed008b9268ce0a3084fd0d89b3c79564564736f6c6343000510003252657665616c656420426964206f72204e6f6e636520646f6e2774206d61746368a265627a7a723158206007bfa30806b3ff0188fa918c04445c0db0b26a0e0c861924f7001f3c81614e64736f6c63430005100032608060405234801561001057600080fd5b506101e9806100206000396000f3fe608060405234801561001057600080fd5b506004361061004c5760003560e01c806317fc45e2146100515780631c582cf71461006f578063711283d11461008d578063f1068454146100dd575b600080fd5b610059610127565b6040518082815260200191505060405180910390f35b61007761012d565b6040518082815260200191505060405180910390f35b6100c3600480360360408110156100a357600080fd5b810190808035906020019092919080359060200190929190505050610133565b604051808215151515815260200191505060405180910390f35b6100e561018e565b604051808273ffffffffffffffffffffffffffffffffffffffff1673ffffffffffffffffffffffffffffffffffffffff16815260200191505060405180910390f35b60015481565b60005481565b6000826000819055508160018190555033600260006101000a81548173ffffffffffffffffffffffffffffffffffffffff021916908373ffffffffffffffffffffffffffffffffffffffff1602179055506001905092915050565b600260009054906101000a900473ffffffffffffffffffffffffffffffffffffffff168156fea265627a7a7231582048101fc989dcbaa11339a721cdc1c5e3003def83be5b2bfdbfe52bd56746726e64736f6c63430005100032",
  "source": "// SPDX-License-Identifier: MIT\npragma solidity >=0.4.22 <0.8.0;\n\ncontract Bid{\n  uint public face;\n  uint public quantity;\n  address public pid;\n\n  function setBid(uint f, uint q) public returns(bool success) {\n    face = f;\n    quantity = q;\n    pid = msg.sender;\n    return true;\n  }\n}\n\ncontract Player{\n  address payable public id;\n  uint public noDices;\n  constructor (address payable _id, uint _noDices) public {\n    id = _id;\n    noDices = _noDices;\n  }\n}\n\ncontract LiarsDice {\n  uint public noPlayers;\n  uint public turn;\n  uint[] private faceNumber = new uint[](7);\n  Bid public lastBid = new Bid();\n  Player[] public players = new Player[](10);\n\n  // The bids are stored in a hashed format so that it is not visible even to the seller\n  mapping(address => bytes32) private hashedDice;\n\n  // A constructor taking in the bidding time and revealing time as parameters\n  constructor () public {\n    lastBid.setBid(1,0);\n    noPlayers = 4;\n    faceNumber = [0,0,0,0,0,0,0];\n  }\n\n  // A function to be called by the highBidder with the secondBid value to pay to the owner\n  function registerParticipant() public payable {\n    players[noPlayers] = new Player(msg.sender,5);\n    noPlayers++;\n  }\n\n  function setDice(bytes32 h) public {\n    hashedDice[msg.sender] = h;\n  }\n\n  function bid(uint f, uint q) public {\n    require(f>=1 && f<=6, \"Dice Face Not Valid\");\n    lastBid.setBid(f,q);\n  }\n\n  function revealDice(uint f1, uint f2, uint f3, uint f4, uint f5) public {\n    require(keccak256(abi.encodePacked(f1,f2,f3,f4,f5)) == hashedDice[msg.sender], \"Revealed Bid or Nonce don't match\");\n    faceNumber[f1]++;\n    faceNumber[f2]++;\n    faceNumber[f3]++;\n    faceNumber[f4]++;\n    faceNumber[f5]++;\n  }\n\n  function challenge() public view returns (bool){\n    uint quantity = faceNumber[lastBid.face()];\n    if(quantity >= lastBid.quantity())\n      return false;\n    else\n      return true;\n  }\n}",
  "sourcePath": "/home/mayank/Study/BC/liar-dice-dapp/contracts/LiarsDice.sol",
  "compiler": {
    "name": "solc",
    "version": "0.5.16+commit.9c3226ce.Emscripten.clang"
  },
  "schemaVersion": "3.2.4",
  "updatedAt": "2020-10-08T13:20:13.921Z",
  "networkType": "ethereum",
  "devdoc": {
    "methods": {}
  },
  "userdoc": {
    "methods": {}
  }
}