{
  "contractName": "LiarsDice",
  "abi": [
    {
      "inputs": [],
      "payable": false,
      "stateMutability": "nonpayable",
      "type": "constructor"
    },
    {
      "constant": true,
      "inputs": [],
      "name": "bidAddress",
      "outputs": [
        {
          "internalType": "address payable",
          "name": "",
          "type": "address"
        }
      ],
      "payable": false,
      "stateMutability": "view",
      "type": "function"
    },
    {
      "constant": true,
      "inputs": [],
      "name": "bidFace",
      "outputs": [
        {
          "internalType": "uint256",
          "name": "",
          "type": "uint256"
        }
      ],
      "payable": false,
      "stateMutability": "view",
      "type": "function"
    },
    {
      "constant": true,
      "inputs": [],
      "name": "bidQuantity",
      "outputs": [
        {
          "internalType": "uint256",
          "name": "",
          "type": "uint256"
        }
      ],
      "payable": false,
      "stateMutability": "view",
      "type": "function"
    },
    {
      "constant": true,
      "inputs": [],
      "name": "challengeState",
      "outputs": [
        {
          "internalType": "uint256",
          "name": "",
          "type": "uint256"
        }
      ],
      "payable": false,
      "stateMutability": "view",
      "type": "function"
    },
    {
      "constant": true,
      "inputs": [],
      "name": "challenger",
      "outputs": [
        {
          "internalType": "address payable",
          "name": "",
          "type": "address"
        }
      ],
      "payable": false,
      "stateMutability": "view",
      "type": "function"
    },
    {
      "constant": true,
      "inputs": [],
      "name": "curBidder",
      "outputs": [
        {
          "internalType": "address payable",
          "name": "",
          "type": "address"
        }
      ],
      "payable": false,
      "stateMutability": "view",
      "type": "function"
    },
    {
      "constant": true,
      "inputs": [],
      "name": "numPlayers",
      "outputs": [
        {
          "internalType": "uint256",
          "name": "",
          "type": "uint256"
        }
      ],
      "payable": false,
      "stateMutability": "view",
      "type": "function"
    },
    {
      "constant": true,
      "inputs": [
        {
          "internalType": "uint256",
          "name": "",
          "type": "uint256"
        }
      ],
      "name": "players",
      "outputs": [
        {
          "internalType": "address payable",
          "name": "",
          "type": "address"
        }
      ],
      "payable": false,
      "stateMutability": "view",
      "type": "function"
    },
    {
      "constant": true,
      "inputs": [],
      "name": "revealLeft",
      "outputs": [
        {
          "internalType": "uint256",
          "name": "",
          "type": "uint256"
        }
      ],
      "payable": false,
      "stateMutability": "view",
      "type": "function"
    },
    {
      "constant": true,
      "inputs": [],
      "name": "turn",
      "outputs": [
        {
          "internalType": "uint256",
          "name": "",
          "type": "uint256"
        }
      ],
      "payable": false,
      "stateMutability": "view",
      "type": "function"
    },
    {
      "constant": true,
      "inputs": [],
      "name": "winner",
      "outputs": [
        {
          "internalType": "address payable",
          "name": "",
          "type": "address"
        }
      ],
      "payable": false,
      "stateMutability": "view",
      "type": "function"
    },
    {
      "constant": false,
      "inputs": [],
      "name": "registerParticipant",
      "outputs": [],
      "payable": true,
      "stateMutability": "payable",
      "type": "function"
    },
    {
      "constant": false,
      "inputs": [
        {
          "internalType": "bytes32",
          "name": "h",
          "type": "bytes32"
        }
      ],
      "name": "setDice",
      "outputs": [],
      "payable": false,
      "stateMutability": "nonpayable",
      "type": "function"
    },
    {
      "constant": false,
      "inputs": [
        {
          "internalType": "uint256",
          "name": "f",
          "type": "uint256"
        },
        {
          "internalType": "uint256",
          "name": "q",
          "type": "uint256"
        }
      ],
      "name": "makeBid",
      "outputs": [],
      "payable": false,
      "stateMutability": "nonpayable",
      "type": "function"
    },
    {
      "constant": false,
      "inputs": [],
      "name": "initiateChallenge",
      "outputs": [],
      "payable": true,
      "stateMutability": "payable",
      "type": "function"
    },
    {
      "constant": false,
      "inputs": [
        {
          "internalType": "uint256",
          "name": "f1",
          "type": "uint256"
        },
        {
          "internalType": "uint256",
          "name": "f2",
          "type": "uint256"
        },
        {
          "internalType": "uint256",
          "name": "f3",
          "type": "uint256"
        },
        {
          "internalType": "uint256",
          "name": "f4",
          "type": "uint256"
        },
        {
          "internalType": "uint256",
          "name": "f5",
          "type": "uint256"
        },
        {
          "internalType": "uint256",
          "name": "nonce",
          "type": "uint256"
        }
      ],
      "name": "revealDice",
      "outputs": [],
      "payable": false,
      "stateMutability": "nonpayable",
      "type": "function"
    },
    {
      "constant": false,
      "inputs": [],
      "name": "checkWin",
      "outputs": [],
      "payable": false,
      "stateMutability": "nonpayable",
      "type": "function"
    },
    {
      "constant": true,
      "inputs": [],
      "name": "getAllPlayers",
      "outputs": [
        {
          "internalType": "address payable[]",
          "name": "",
          "type": "address[]"
        }
      ],
      "payable": false,
      "stateMutability": "view",
      "type": "function"
    }
  ],
  "bytecode": "0x6080604052600a604051908082528060200260200182016040528015620000355781602001602082028038833980820191505090505b50600190805190602001906200004d9291906200012d565b5060076040519080825280602002602001820160405280156200007f5781602001602082028038833980820191505090505b506003908051906020019062000097929190620001bc565b50348015620000a557600080fd5b50600060028190555060006004819055506000600581905550600080819055506040518060e00160405280600060ff168152602001600060ff168152602001600060ff168152602001600060ff168152602001600060ff168152602001600060ff168152602001600060ff168152506003906007620001269291906200020e565b50620002d3565b828054828255906000526020600020908101928215620001a9579160200282015b82811115620001a85782518260006101000a81548173ffffffffffffffffffffffffffffffffffffffff021916908373ffffffffffffffffffffffffffffffffffffffff160217905550916020019190600101906200014e565b5b509050620001b8919062000265565b5090565b828054828255906000526020600020908101928215620001fb579160200282015b82811115620001fa578251825591602001919060010190620001dd565b5b5090506200020a9190620002ab565b5090565b82805482825590600052602060002090810192821562000252579160200282015b8281111562000251578251829060ff169055916020019190600101906200022f565b5b509050620002619190620002ab565b5090565b620002a891905b80821115620002a457600081816101000a81549073ffffffffffffffffffffffffffffffffffffffff0219169055506001016200026c565b5090565b90565b620002d091905b80821115620002cc576000816000905550600101620002b2565b5090565b90565b610cf980620002e36000396000f3fe6080604052600436106101095760003560e01c8063a159fb5411610095578063d24481ea11610064578063d24481ea146103bf578063dfbf53ae146103d6578063ec1c4e841461042d578063efa1c48214610484578063f71d96cb146104f057610109565b8063a159fb541461030a578063aaa4f80514610345578063adfcdc1114610370578063ccfc811b146103b557610109565b8063534db0e2116100dc578063534db0e2146101c5578063843d5a5c1461021c578063843dbb58146102475780638b299903146102b457806397b2f556146102df57610109565b80630193f63e1461010e578063222617a7146101185780632f57fbf014610143578063339154511461019a575b600080fd5b61011661056b565b005b34801561012457600080fd5b5061012d6105bf565b6040518082815260200191505060405180910390f35b34801561014f57600080fd5b506101586105c5565b604051808273ffffffffffffffffffffffffffffffffffffffff1673ffffffffffffffffffffffffffffffffffffffff16815260200191505060405180910390f35b3480156101a657600080fd5b506101af6105eb565b6040518082815260200191505060405180910390f35b3480156101d157600080fd5b506101da6105f1565b604051808273ffffffffffffffffffffffffffffffffffffffff1673ffffffffffffffffffffffffffffffffffffffff16815260200191505060405180910390f35b34801561022857600080fd5b50610231610617565b6040518082815260200191505060405180910390f35b34801561025357600080fd5b506102b2600480360360c081101561026a57600080fd5b8101908080359060200190929190803590602001909291908035906020019092919080359060200190929190803590602001909291908035906020019092919050505061061d565b005b3480156102c057600080fd5b506102c96107f4565b6040518082815260200191505060405180910390f35b3480156102eb57600080fd5b506102f46107fa565b6040518082815260200191505060405180910390f35b34801561031657600080fd5b506103436004803603602081101561032d57600080fd5b8101908080359060200190929190505050610800565b005b34801561035157600080fd5b5061035a610847565b6040518082815260200191505060405180910390f35b34801561037c57600080fd5b506103b36004803603604081101561039357600080fd5b81019080803590602001909291908035906020019092919050505061084d565b005b6103bd610931565b005b3480156103cb57600080fd5b506103d4610a97565b005b3480156103e257600080fd5b506103eb610b8d565b604051808273ffffffffffffffffffffffffffffffffffffffff1673ffffffffffffffffffffffffffffffffffffffff16815260200191505060405180910390f35b34801561043957600080fd5b50610442610bb3565b604051808273ffffffffffffffffffffffffffffffffffffffff1673ffffffffffffffffffffffffffffffffffffffff16815260200191505060405180910390f35b34801561049057600080fd5b50610499610bd9565b6040518080602001828103825283818151815260200191508051906020019060200280838360005b838110156104dc5780820151818401526020810190506104c1565b505050509050019250505060405180910390f35b3480156104fc57600080fd5b506105296004803603602081101561051357600080fd5b8101908080359060200190929190505050610c67565b604051808273ffffffffffffffffffffffffffffffffffffffff1673ffffffffffffffffffffffffffffffffffffffff16815260200191505060405180910390f35b33600960006101000a81548173ffffffffffffffffffffffffffffffffffffffff021916908373ffffffffffffffffffffffffffffffffffffffff1602179055506001600a81905550600054600b81905550565b60045481565b600660009054906101000a900473ffffffffffffffffffffffffffffffffffffffff1681565b600b5481565b600960009054906101000a900473ffffffffffffffffffffffffffffffffffffffff1681565b600a5481565b600860003373ffffffffffffffffffffffffffffffffffffffff1673ffffffffffffffffffffffffffffffffffffffff168152602001908152602001600020548686868686866040516020018087815260200186815260200185815260200184815260200183815260200182815260200196505050505050506040516020818303038152906040528051906020012014610702576040517f08c379a0000000000000000000000000000000000000000000000000000000008152600401808060200182810382526021815260200180610ca46021913960400191505060405180910390fd5b6003868154811061070f57fe5b90600052602060002001600081548092919060010191905055506003858154811061073657fe5b90600052602060002001600081548092919060010191905055506003848154811061075d57fe5b90600052602060002001600081548092919060010191905055506003838154811061078457fe5b9060005260206000200160008154809291906001019190505550600382815481106107ab57fe5b9060005260206000200160008154809291906001019190505550600b60008154809291906001900391905055506000600b5414156107ec576107eb610a97565b5b505050505050565b60025481565b60005481565b80600860003373ffffffffffffffffffffffffffffffffffffffff1673ffffffffffffffffffffffffffffffffffffffff1681526020019081526020016000208190555050565b60055481565b816004819055508060058190555033600660006101000a81548173ffffffffffffffffffffffffffffffffffffffff021916908373ffffffffffffffffffffffffffffffffffffffff160217905550600054600160025401816108ac57fe5b066002819055506001600254815481106108c257fe5b9060005260206000200160009054906101000a900473ffffffffffffffffffffffffffffffffffffffff16600760006101000a81548173ffffffffffffffffffffffffffffffffffffffff021916908373ffffffffffffffffffffffffffffffffffffffff1602179055505050565b600a3410156109a8576040517f08c379a000000000000000000000000000000000000000000000000000000000815260040180806020018281038252601e8152602001807f53656e642041746c656173742031302045746865727320746f20506c6179000081525060200191505060405180910390fd5b336001600054815481106109b857fe5b9060005260206000200160006101000a81548173ffffffffffffffffffffffffffffffffffffffff021916908373ffffffffffffffffffffffffffffffffffffffff160217905550600080541415610a84576001600081548110610a1857fe5b9060005260206000200160009054906101000a900473ffffffffffffffffffffffffffffffffffffffff16600760006101000a81548173ffffffffffffffffffffffffffffffffffffffff021916908373ffffffffffffffffffffffffffffffffffffffff1602179055505b6000808154809291906001019190505550565b6000600360045481548110610aa857fe5b906000526020600020015490506005548110610b2657600660009054906101000a900473ffffffffffffffffffffffffffffffffffffffff16600c60006101000a81548173ffffffffffffffffffffffffffffffffffffffff021916908373ffffffffffffffffffffffffffffffffffffffff160217905550610b8a565b600960009054906101000a900473ffffffffffffffffffffffffffffffffffffffff16600c60006101000a81548173ffffffffffffffffffffffffffffffffffffffff021916908373ffffffffffffffffffffffffffffffffffffffff1602179055505b50565b600c60009054906101000a900473ffffffffffffffffffffffffffffffffffffffff1681565b600760009054906101000a900473ffffffffffffffffffffffffffffffffffffffff1681565b60606001805480602002602001604051908101604052809291908181526020018280548015610c5d57602002820191906000526020600020905b8160009054906101000a900473ffffffffffffffffffffffffffffffffffffffff1673ffffffffffffffffffffffffffffffffffffffff1681526020019060010190808311610c13575b5050505050905090565b60018181548110610c7457fe5b906000526020600020016000915054906101000a900473ffffffffffffffffffffffffffffffffffffffff168156fe52657665616c656420426964206f72204e6f6e636520646f6e2774206d61746368a265627a7a72315820666b0be25dac9b6c7cdf2e9f2dce7e9a2b4e2806da59c2cfe64407bac45b228964736f6c63430005100032",
  "source": "// SPDX-License-Identifier: MIT\npragma solidity >=0.4.22 <0.8.0;\n\ncontract LiarsDice {\n    uint256 public numPlayers;\n    address payable[] public players = new address payable[](10);\n\n    uint256 public turn;\n    uint256[] private faceNumber = new uint256[](7);\n\n    uint256 public bidFace;\n    uint256 public bidQuantity;\n    address payable public bidAddress;\n    address payable public curBidder;\n\n    // The dice faces are hashed and sent to contract\n    mapping(address => bytes32) private hashedDice;\n    address payable public challenger;\n    uint256 public challengeState;\n    uint256 public revealLeft;\n    address payable public winner;\n\n    // A constructor taking in the bidding time and revealing time as parameters\n    constructor() public {\n        turn = 0;\n        bidFace = 0;\n        bidQuantity = 0;\n        numPlayers = 0;\n        faceNumber = [0, 0, 0, 0, 0, 0, 0];\n    }\n\n    // A function\n    function registerParticipant() public payable {\n        require(msg.value >= 10, \"Send Atleast 10 Ethers to Play\");\n        players[numPlayers] = msg.sender;\n        if (numPlayers == 0) curBidder = players[0];\n        numPlayers++;\n    }\n\n    function setDice(bytes32 h) public {\n        hashedDice[msg.sender] = h;\n    }\n\n    function makeBid(uint256 f, uint256 q) public {\n        bidFace = f;\n        bidQuantity = q;\n        bidAddress = msg.sender;\n        turn = (turn + 1) % numPlayers;\n        curBidder = players[turn];\n    }\n\n    function initiateChallenge() public payable {\n        challenger = msg.sender;\n        challengeState = 1;\n        revealLeft = numPlayers;\n    }\n\n    function revealDice(\n        uint256 f1,\n        uint256 f2,\n        uint256 f3,\n        uint256 f4,\n        uint256 f5,\n        uint256 nonce\n    ) public {\n        require(\n            keccak256(abi.encodePacked(f1, f2, f3, f4, f5, nonce)) ==\n                hashedDice[msg.sender],\n            \"Revealed Bid or Nonce don't match\"\n        );\n        faceNumber[f1]++;\n        faceNumber[f2]++;\n        faceNumber[f3]++;\n        faceNumber[f4]++;\n        faceNumber[f5]++;\n        revealLeft--;\n        if (revealLeft == 0) {\n            checkWin();\n        }\n    }\n\n    function checkWin() public {\n        uint256 quantity = faceNumber[bidFace];\n        if (quantity >= bidQuantity) winner = bidAddress;\n        else winner = challenger;\n    }\n\n    function getAllPlayers() public view returns (address payable[] memory) {\n        return players;\n    }\n}\n",
  "sourcePath": "/home/mayank/Study/BC/liar-dice-dapp/contracts/LiarsDice.sol",
  "compiler": {
    "name": "solc",
    "version": "0.5.16+commit.9c3226ce.Emscripten.clang"
  },
  "schemaVersion": "3.2.4",
  "updatedAt": "2020-10-11T19:00:06.385Z",
  "devdoc": {
    "methods": {}
  },
  "userdoc": {
    "methods": {}
  }
}