{
  "contractName": "LiarsDice",
  "abi": [
    {
      "inputs": [],
      "payable": false,
      "stateMutability": "nonpayable",
      "type": "constructor"
    },
    {
      "constant": true,
      "inputs": [],
      "name": "bidAddress",
      "outputs": [
        {
          "internalType": "address payable",
          "name": "",
          "type": "address"
        }
      ],
      "payable": false,
      "stateMutability": "view",
      "type": "function"
    },
    {
      "constant": true,
      "inputs": [],
      "name": "bidFace",
      "outputs": [
        {
          "internalType": "uint256",
          "name": "",
          "type": "uint256"
        }
      ],
      "payable": false,
      "stateMutability": "view",
      "type": "function"
    },
    {
      "constant": true,
      "inputs": [],
      "name": "bidQuantity",
      "outputs": [
        {
          "internalType": "uint256",
          "name": "",
          "type": "uint256"
        }
      ],
      "payable": false,
      "stateMutability": "view",
      "type": "function"
    },
    {
      "constant": true,
      "inputs": [],
      "name": "challengeState",
      "outputs": [
        {
          "internalType": "uint256",
          "name": "",
          "type": "uint256"
        }
      ],
      "payable": false,
      "stateMutability": "view",
      "type": "function"
    },
    {
      "constant": true,
      "inputs": [],
      "name": "challenger",
      "outputs": [
        {
          "internalType": "address payable",
          "name": "",
          "type": "address"
        }
      ],
      "payable": false,
      "stateMutability": "view",
      "type": "function"
    },
    {
      "constant": true,
      "inputs": [],
      "name": "curBidder",
      "outputs": [
        {
          "internalType": "address payable",
          "name": "",
          "type": "address"
        }
      ],
      "payable": false,
      "stateMutability": "view",
      "type": "function"
    },
    {
      "constant": true,
      "inputs": [],
      "name": "numPlayers",
      "outputs": [
        {
          "internalType": "uint256",
          "name": "",
          "type": "uint256"
        }
      ],
      "payable": false,
      "stateMutability": "view",
      "type": "function"
    },
    {
      "constant": true,
      "inputs": [
        {
          "internalType": "uint256",
          "name": "",
          "type": "uint256"
        }
      ],
      "name": "players",
      "outputs": [
        {
          "internalType": "address payable",
          "name": "",
          "type": "address"
        }
      ],
      "payable": false,
      "stateMutability": "view",
      "type": "function"
    },
    {
      "constant": true,
      "inputs": [],
      "name": "quantity",
      "outputs": [
        {
          "internalType": "uint256",
          "name": "",
          "type": "uint256"
        }
      ],
      "payable": false,
      "stateMutability": "view",
      "type": "function"
    },
    {
      "constant": true,
      "inputs": [],
      "name": "revealLeft",
      "outputs": [
        {
          "internalType": "uint256",
          "name": "",
          "type": "uint256"
        }
      ],
      "payable": false,
      "stateMutability": "view",
      "type": "function"
    },
    {
      "constant": true,
      "inputs": [],
      "name": "turn",
      "outputs": [
        {
          "internalType": "uint256",
          "name": "",
          "type": "uint256"
        }
      ],
      "payable": false,
      "stateMutability": "view",
      "type": "function"
    },
    {
      "constant": true,
      "inputs": [],
      "name": "winner",
      "outputs": [
        {
          "internalType": "address payable",
          "name": "",
          "type": "address"
        }
      ],
      "payable": false,
      "stateMutability": "view",
      "type": "function"
    },
    {
      "constant": true,
      "inputs": [],
      "name": "winnerIndex",
      "outputs": [
        {
          "internalType": "uint256",
          "name": "",
          "type": "uint256"
        }
      ],
      "payable": false,
      "stateMutability": "view",
      "type": "function"
    },
    {
      "constant": false,
      "inputs": [],
      "name": "registerParticipant",
      "outputs": [],
      "payable": true,
      "stateMutability": "payable",
      "type": "function"
    },
    {
      "constant": false,
      "inputs": [
        {
          "internalType": "bytes32",
          "name": "h",
          "type": "bytes32"
        }
      ],
      "name": "setDice",
      "outputs": [],
      "payable": false,
      "stateMutability": "nonpayable",
      "type": "function"
    },
    {
      "constant": false,
      "inputs": [
        {
          "internalType": "uint256",
          "name": "f",
          "type": "uint256"
        },
        {
          "internalType": "uint256",
          "name": "q",
          "type": "uint256"
        }
      ],
      "name": "makeBid",
      "outputs": [],
      "payable": false,
      "stateMutability": "nonpayable",
      "type": "function"
    },
    {
      "constant": false,
      "inputs": [],
      "name": "initiateChallenge",
      "outputs": [],
      "payable": true,
      "stateMutability": "payable",
      "type": "function"
    },
    {
      "constant": false,
      "inputs": [
        {
          "internalType": "uint256",
          "name": "f1",
          "type": "uint256"
        },
        {
          "internalType": "uint256",
          "name": "f2",
          "type": "uint256"
        },
        {
          "internalType": "uint256",
          "name": "f3",
          "type": "uint256"
        },
        {
          "internalType": "uint256",
          "name": "f4",
          "type": "uint256"
        },
        {
          "internalType": "uint256",
          "name": "f5",
          "type": "uint256"
        },
        {
          "internalType": "uint256",
          "name": "nonce",
          "type": "uint256"
        }
      ],
      "name": "revealDice",
      "outputs": [],
      "payable": false,
      "stateMutability": "nonpayable",
      "type": "function"
    },
    {
      "constant": false,
      "inputs": [],
      "name": "checkWin",
      "outputs": [],
      "payable": false,
      "stateMutability": "nonpayable",
      "type": "function"
    },
    {
      "constant": true,
      "inputs": [],
      "name": "getAllPlayers",
      "outputs": [
        {
          "internalType": "address payable[]",
          "name": "",
          "type": "address[]"
        }
      ],
      "payable": false,
      "stateMutability": "view",
      "type": "function"
    }
  ],
  "bytecode": "0x6080604052600a604051908082528060200260200182016040528015620000355781602001602082028038833980820191505090505b50600190805190602001906200004d9291906200012d565b5060076040519080825280602002602001820160405280156200007f5781602001602082028038833980820191505090505b506003908051906020019062000097929190620001bc565b50348015620000a557600080fd5b50600060028190555060006004819055506000600581905550600080819055506040518060e00160405280600060ff168152602001600060ff168152602001600060ff168152602001600060ff168152602001600060ff168152602001600060ff168152602001600060ff168152506003906007620001269291906200020e565b50620002d3565b828054828255906000526020600020908101928215620001a9579160200282015b82811115620001a85782518260006101000a81548173ffffffffffffffffffffffffffffffffffffffff021916908373ffffffffffffffffffffffffffffffffffffffff160217905550916020019190600101906200014e565b5b509050620001b8919062000265565b5090565b828054828255906000526020600020908101928215620001fb579160200282015b82811115620001fa578251825591602001919060010190620001dd565b5b5090506200020a9190620002ab565b5090565b82805482825590600052602060002090810192821562000252579160200282015b8281111562000251578251829060ff169055916020019190600101906200022f565b5b509050620002619190620002ab565b5090565b620002a891905b80821115620002a457600081816101000a81549073ffffffffffffffffffffffffffffffffffffffff0219169055506001016200026c565b5090565b90565b620002d091905b80821115620002cc576000816000905550600101620002b2565b5090565b90565b610d2580620002e36000396000f3fe60806040526004361061011f5760003560e01c806397b2f556116100a0578063d24481ea11610064578063d24481ea1461042b578063dfbf53ae14610442578063ec1c4e8414610499578063efa1c482146104f0578063f71d96cb1461055c5761011f565b806397b2f5561461034b578063a159fb5414610376578063aaa4f805146103b1578063adfcdc11146103dc578063ccfc811b146104215761011f565b8063534db0e2116100e7578063534db0e214610206578063843d5a5c1461025d578063843dbb58146102885780638b299903146102f55780638f00cbfa146103205761011f565b80630193f63e1461012457806317fc45e21461012e578063222617a7146101595780632f57fbf01461018457806333915451146101db575b600080fd5b61012c6105d7565b005b34801561013a57600080fd5b5061014361062b565b6040518082815260200191505060405180910390f35b34801561016557600080fd5b5061016e610631565b6040518082815260200191505060405180910390f35b34801561019057600080fd5b50610199610637565b604051808273ffffffffffffffffffffffffffffffffffffffff1673ffffffffffffffffffffffffffffffffffffffff16815260200191505060405180910390f35b3480156101e757600080fd5b506101f061065d565b6040518082815260200191505060405180910390f35b34801561021257600080fd5b5061021b610663565b604051808273ffffffffffffffffffffffffffffffffffffffff1673ffffffffffffffffffffffffffffffffffffffff16815260200191505060405180910390f35b34801561026957600080fd5b50610272610689565b6040518082815260200191505060405180910390f35b34801561029457600080fd5b506102f3600480360360c08110156102ab57600080fd5b8101908080359060200190929190803590602001909291908035906020019092919080359060200190929190803590602001909291908035906020019092919050505061068f565b005b34801561030157600080fd5b5061030a610866565b6040518082815260200191505060405180910390f35b34801561032c57600080fd5b5061033561086c565b6040518082815260200191505060405180910390f35b34801561035757600080fd5b50610360610872565b6040518082815260200191505060405180910390f35b34801561038257600080fd5b506103af6004803603602081101561039957600080fd5b8101908080359060200190929190505050610878565b005b3480156103bd57600080fd5b506103c66108bf565b6040518082815260200191505060405180910390f35b3480156103e857600080fd5b5061041f600480360360408110156103ff57600080fd5b8101908080359060200190929190803590602001909291905050506108c5565b005b6104296109a9565b005b34801561043757600080fd5b50610440610a98565b005b34801561044e57600080fd5b50610457610bb9565b604051808273ffffffffffffffffffffffffffffffffffffffff1673ffffffffffffffffffffffffffffffffffffffff16815260200191505060405180910390f35b3480156104a557600080fd5b506104ae610bdf565b604051808273ffffffffffffffffffffffffffffffffffffffff1673ffffffffffffffffffffffffffffffffffffffff16815260200191505060405180910390f35b3480156104fc57600080fd5b50610505610c05565b6040518080602001828103825283818151815260200191508051906020019060200280838360005b8381101561054857808201518184015260208101905061052d565b505050509050019250505060405180910390f35b34801561056857600080fd5b506105956004803603602081101561057f57600080fd5b8101908080359060200190929190505050610c93565b604051808273ffffffffffffffffffffffffffffffffffffffff1673ffffffffffffffffffffffffffffffffffffffff16815260200191505060405180910390f35b33600960006101000a81548173ffffffffffffffffffffffffffffffffffffffff021916908373ffffffffffffffffffffffffffffffffffffffff1602179055506001600a81905550600054600b81905550565b600e5481565b60045481565b600660009054906101000a900473ffffffffffffffffffffffffffffffffffffffff1681565b600b5481565b600960009054906101000a900473ffffffffffffffffffffffffffffffffffffffff1681565b600a5481565b600860003373ffffffffffffffffffffffffffffffffffffffff1673ffffffffffffffffffffffffffffffffffffffff168152602001908152602001600020548686868686866040516020018087815260200186815260200185815260200184815260200183815260200182815260200196505050505050506040516020818303038152906040528051906020012014610774576040517f08c379a0000000000000000000000000000000000000000000000000000000008152600401808060200182810382526021815260200180610cd06021913960400191505060405180910390fd5b6003868154811061078157fe5b9060005260206000200160008154809291906001019190505550600385815481106107a857fe5b9060005260206000200160008154809291906001019190505550600384815481106107cf57fe5b9060005260206000200160008154809291906001019190505550600383815481106107f657fe5b90600052602060002001600081548092919060010191905055506003828154811061081d57fe5b9060005260206000200160008154809291906001019190505550600b60008154809291906001900391905055506000600b54141561085e5761085d610a98565b5b505050505050565b60025481565b600d5481565b60005481565b80600860003373ffffffffffffffffffffffffffffffffffffffff1673ffffffffffffffffffffffffffffffffffffffff1681526020019081526020016000208190555050565b60055481565b816004819055508060058190555033600660006101000a81548173ffffffffffffffffffffffffffffffffffffffff021916908373ffffffffffffffffffffffffffffffffffffffff1602179055506000546001600254018161092457fe5b0660028190555060016002548154811061093a57fe5b9060005260206000200160009054906101000a900473ffffffffffffffffffffffffffffffffffffffff16600760006101000a81548173ffffffffffffffffffffffffffffffffffffffff021916908373ffffffffffffffffffffffffffffffffffffffff1602179055505050565b336001600054815481106109b957fe5b9060005260206000200160006101000a81548173ffffffffffffffffffffffffffffffffffffffff021916908373ffffffffffffffffffffffffffffffffffffffff160217905550600080541415610a85576001600081548110610a1957fe5b9060005260206000200160009054906101000a900473ffffffffffffffffffffffffffffffffffffffff16600760006101000a81548173ffffffffffffffffffffffffffffffffffffffff021916908373ffffffffffffffffffffffffffffffffffffffff1602179055505b6000808154809291906001019190505550565b600360045481548110610aa757fe5b9060005260206000200154600e81905550600554600e5410610b4757600660009054906101000a900473ffffffffffffffffffffffffffffffffffffffff16600c60006101000a81548173ffffffffffffffffffffffffffffffffffffffff021916908373ffffffffffffffffffffffffffffffffffffffff160217905550600060025414610b3857600254610b3c565b6000545b600d81905550610bb7565b600960009054906101000a900473ffffffffffffffffffffffffffffffffffffffff16600c60006101000a81548173ffffffffffffffffffffffffffffffffffffffff021916908373ffffffffffffffffffffffffffffffffffffffff160217905550600160025401600d819055505b565b600c60009054906101000a900473ffffffffffffffffffffffffffffffffffffffff1681565b600760009054906101000a900473ffffffffffffffffffffffffffffffffffffffff1681565b60606001805480602002602001604051908101604052809291908181526020018280548015610c8957602002820191906000526020600020905b8160009054906101000a900473ffffffffffffffffffffffffffffffffffffffff1673ffffffffffffffffffffffffffffffffffffffff1681526020019060010190808311610c3f575b5050505050905090565b60018181548110610ca057fe5b906000526020600020016000915054906101000a900473ffffffffffffffffffffffffffffffffffffffff168156fe52657665616c656420426964206f72204e6f6e636520646f6e2774206d61746368a265627a7a72315820271577550bca35693c5c115cf2a02574a5a1198dc83822a3905135efb6778a5264736f6c63430005100032",
  "source": "// SPDX-License-Identifier: MIT\npragma solidity >=0.4.22 <0.8.0;\n\ncontract LiarsDice {\n    uint256 public numPlayers;\n    address payable[] public players = new address payable[](10);\n\n    uint256 public turn;\n    uint256[] private faceNumber = new uint256[](7);\n\n    uint256 public bidFace;\n    uint256 public bidQuantity;\n    address payable public bidAddress;\n    address payable public curBidder;\n\n    // The dice faces are hashed and sent to contract\n    mapping(address => bytes32) private hashedDice;\n    address payable public challenger;\n    uint256 public challengeState;\n    uint256 public revealLeft;\n    address payable public winner;\n    uint256 public winnerIndex;\n    uint256 public quantity;\n\n    // A constructor taking in the bidding time and revealing time as parameters\n    constructor() public {\n        turn = 0;\n        bidFace = 0;\n        bidQuantity = 0;\n        numPlayers = 0;\n        faceNumber = [0, 0, 0, 0, 0, 0, 0];\n    }\n\n    // A function\n    function registerParticipant() public payable {\n        players[numPlayers] = msg.sender;\n        if (numPlayers == 0) curBidder = players[0];\n        numPlayers++;\n    }\n\n    function setDice(bytes32 h) public {\n        hashedDice[msg.sender] = h;\n    }\n\n    function makeBid(uint256 f, uint256 q) public {\n        bidFace = f;\n        bidQuantity = q;\n        bidAddress = msg.sender;\n        turn = (turn + 1) % numPlayers;\n        curBidder = players[turn];\n    }\n\n    function initiateChallenge() public payable {\n        challenger = msg.sender;\n        challengeState = 1;\n        revealLeft = numPlayers;\n    }\n\n    function revealDice(\n        uint256 f1,\n        uint256 f2,\n        uint256 f3,\n        uint256 f4,\n        uint256 f5,\n        uint256 nonce\n    ) public {\n        require(\n            keccak256(abi.encodePacked(f1, f2, f3, f4, f5, nonce)) ==\n                hashedDice[msg.sender],\n            \"Revealed Bid or Nonce don't match\"\n        );\n        faceNumber[f1]++;\n        faceNumber[f2]++;\n        faceNumber[f3]++;\n        faceNumber[f4]++;\n        faceNumber[f5]++;\n        revealLeft--;\n        if (revealLeft == 0) {\n            checkWin();\n        }\n    }\n\n    function checkWin() public {\n        quantity = faceNumber[bidFace];\n        if (quantity >= bidQuantity) {\n            winner = bidAddress;\n            winnerIndex = (turn == 0) ? numPlayers : turn;\n        } else {\n            winner = challenger;\n            winnerIndex = (turn + 1);\n        }\n    }\n\n    function getAllPlayers() public view returns (address payable[] memory) {\n        return players;\n    }\n}\n",
  "sourcePath": "/home/mayank/Study/BC/liar-dice-dapp/contracts/LiarsDice.sol",
  "compiler": {
    "name": "solc",
    "version": "0.5.16+commit.9c3226ce.Emscripten.clang"
  },
  "schemaVersion": "3.2.4",
  "updatedAt": "2020-10-11T19:32:32.493Z",
  "networkType": "ethereum",
  "devdoc": {
    "methods": {}
  },
  "userdoc": {
    "methods": {}
  }
}